:100000000088022095070300951703009517030049
:100010009517030095170300951703009517030024
:1000200095170300951703009517030041DD0200A3
:1000300095170300951703001122020089DD0200C5
:1000400095170300951703009517030095170300F4
:1000500095170300951703009517030095170300E4
:1000600095170300951703009517030095170300D4
:1000700095170300951703009517030095170300C4
:1000800095170300951703009517030095170300B4
:1000900095170300951703009517030095170300A4
:1000A0009517030095170300951703009517030094
:1000B0009517030095170300951703009517030084
:0C00C00095170300951703009517030027
:1000E0002DE9F04F85B082461446500400F1A480FB
:1000F000C805CDF810A0039003D411F0B00F00F0A4
:1001000046820520029100BF00BFDFF854B924F4F5
:10011000A0384FF00009A048AFF30080AFF3008093
:10012000AFF30080AFF3008000680428C0F029819D
:100130000020A2461FF008F80546052010FA85F7B2
:10014000DBF8140027F00306314628F00BF80446CC
:10015000DBF8140084421CBFCBF8144049F00809B6
:10016000002C00F0FF80E089B908204400F110075E
:1001700038461AF003FB0398002840D5A8B203289C
:100180003DD37868C0F30341082917D007291DD152
:10019000384619F05DF89BF8350028B39BF8070046
:1001A0002538022822D804989BF82310408800F0B4
:1001B00003020120B2EB511F19D11BE09BF84C0048
:1001C00060B14FF48070ABF84F0018E0012905D8FA
:1001D0009BF84C1011B1000E8BF8520000208BF8E8
:1001E0005000ABF84E000AE0002003E000208BF83E
:1001F0004E00012001218BF84F008BF85010E08950
:1002000081192044E1819BF80710C1749BF84C00D0
:1002100000284FF03C0008BF3820049908580C30E3
:100220002DF06AFD062000BF00BF072000BF00BF01
:1002300049F0040944466EE7049427F041FC8046E7
:1002400031F071FA55485649AFF30080AFF30080A2
:10025000AFF30080AFF30080524E0024DFF808BCFB
:10026000C0F810145048AFF30080AFF30080AFF334
:100270000080AFF300807061AFF30080AFF30080C7
:10028000AFF30080AFF30080A6F866404748AFF3B5
:100290000080AFF30080AFF30080AFF300800088F0
:1002A000ABF80E00AFF30080AFF30080AFF3008037
:1002B000AFF30080BBF80E002CF098FEB081AFF3D6
:1002C0000080AFF30080AFF30080AFF30080348391
:1002D000102041F202018BF848408BF80500BAF873
:1002E0000000884214BF002001208BF84C00DFF88A
:1002F0007C0B9AF830909AF831409AF83750C078D1
:100300000F281CBF9AF8320010F0010007D02DF022
:100310003FFC31F047F94FF400102BF05FFA00205A
:1003200018218BF851008BF84D000BF1200031F0B3
:1003300045F9BAF802002DF0CDFC0746484620F0FA
:10034000CFFC28B10646204631460CF075FC78B348
:100350008220049C8AF805004FF002094FF0000B40
:1003600000F05BBD8520544601218BF805000B4849
:10037000AFF30080AFF30080AFF30080AFF30080F5
:1003800001609BF80600DDF810A0029908B1012673
:1003900002E1002600E100BFCC1108403010084007
:1003A000D6BE898E3020094000555555342009406D
:1003B00015F0030409D0E8070AD0BAF8020020B902
:1003C000A80705D430F0F8FF02D882208AF805008B
:1003D000032F41F07A8030460021002706F0F2FA20
:1003E00018F0DEFE5046414624F03EFD0F28B0D8FE
:1003F0009BF84C003C21019400284FF0400008BFBE
:1004000038215AF80160DFF8681A08BF3C205AF812
:100410000000096913F0EAFCCB498BF80600B9F13A
:10042000400F4FFA89F0AFF30080AFF30080AFF3D5
:100430000080AFF30080A1F88A7038BF49F0400710
:10044000002848BF09F07F07AFF30080AFF30080BA
:10045000AFF30080AFF300804F819BF8040068B1D8
:10046000BA48BB49AFF30080AFF30080AFF3008020
:10047000AFF3008080EA0760C1F81004A807B24C0F
:1004800002954FF0FF0803904FF0FF0058BF252062
:10049000AFF30080AFF30080AFF30080AFF30080D4
:1004A0002085AFF30080AFF30080AFF30080AFF39F
:1004B0000080B08A6086AFF30080AFF30080AFF3B6
:1004C0000080AFF30080F08AA086AFF30080AFF326
:1004D0000080AFF30080AFF30080308BE086AFF395
:1004E0000080AFF30080AFF30080AFF3008096F898
:1004F0002600C0F34000A08526F0ECFD1EF0D2F9E6
:100500000027ABF8080006F10C00CBF814702DF0B2
:10051000F3FB22F047FBABF80A00AFF30080AFF328
:100520000080AFF30080AFF3008096F827008BF8CF
:10053000108000F004002080AFF30080AFF3008053
:10054000AFF30080AFF30080A4F8807027460498D2
:1005500020F4803004909BF84C00002800F06E815D
:1005600096F8270007F58871AFF30080AFF300809D
:10057000AFF30080AFF30080C00740F0D0810024CB
:1005800000200022A7F87E4025F036F9D0E1DDF802
:1005900010A000264FF00009C4F3801049EA0009BA
:1005A000DFF8C808C0780F2810D088020ED5DFF811
:1005B000B8080122AFF30080AFF30080AFF30080F2
:1005C000AFF3008080F848206148026048F20100E3
:1005D000014255D05F48AFF30080AFF30080AFF326
:1005E0000080AFF300800588AFB2C80BC1074BD1C4
:1005F000042F03D0032F47D8012F45D0DFF868B868
:100600003C2103969BF84C00002808BF38215AF87B
:1006100001804BD09BF805A04F482546AFF30080E2
:10062000AFF30080AFF30080AFF300800488032FA6
:1006300004F0040000F09280022F71D0002F40F0EF
:100640009F809BF85000002800F09E819BF84F008F
:10065000002800F0AD8117F02FFA9BF84E0000281B
:1006600000F0838304999BF8230049F400494988EA
:1006700001F0040141EA5010DFF8F41788859CE18D
:100680004FF0000B00F08EBBDFF8DC0790F848203D
:100690001AB149F002091820C0E0407900293AD087
:1006A000102838D138462BF0EDFAB5E09BF8500011
:1006B000002800F096802848AFF30080AFF3008058
:1006C000AFF30080AFF300800088400703D54046B9
:1006D00039461EF0B1FD9BF84F00002800F0A380C2
:1006E000280440F0A08017F0E7F99BF84E0000289E
:1006F00000F04E81BAF802109BF8230001F00401CB
:1007000041EA5010DFF868178885092000BF00BF54
:1007100049F4004948E1072F40F07080022079E059
:100720009BF850104FF0000B002900F02F81039E22
:1007300000282C4600F02883404602211EF07CFD54
:10074000049880F805A020E230200940D6BE898EAA
:1007500030100840062009404E2009409BF85010F8
:100760004FF0000B002900F01181039E00282C4659
:1007700000F00A830499152049F00209487103E347
:10078000042F40F08A80404604211EF055FDB048F9
:10079000AFF30080AFF30080AFF30080AFF30080D1
:1007A00001689BF84D00DBF81820DDF81080002868
:1007B00000F0A281DBF85400AFF30080AFF30080BB
:1007C000AFF30080AFF300800088AFF30080AFF399
:1007D0000080AFF30080AFF30080DBF85830188062
:1007E0008CE1404639461EF027FD30F035FE1028DA
:1007F00056D38AF8050049F00209D5E0DFF87026E3
:10080000117D49074FEA054140F1B580002940F0CC
:10081000B28003202DF0E0FF49F002094FF0000BF9
:100820008AF80500B7E249F00209032F00F0B98009
:10083000039E022F14BF10201420EFE7308C718C20
:100840000843B18CAFF30080AFF30080AFF30080BA
:10085000AFF30080084300F0C380308C3887AFF3DB
:100860000080AFF30080AFF30080AFF30080708CA6
:100870007887AFF30080AFF30080AFF30080AFF371
:100880000080B08CB887AFF30080AFF30080AFF387
:100890000080AFF300800220C1E0039E2C4676E189
:1008A000DFF8CC0C017D490700F17E8090F8200034
:1008B000400700F179802546664C0720AFF30080A1
:1008C000AFF30080AFF30080AFF3008001215E46FC
:1008D0004FF0000BC4F870015F48AFF30080AFF336
:1008E0000080AFF30080AFF30080A0F88C100021EF
:1008F0009AF8320021F05EF80620AFF30080AFF3E3
:100900000080AFF30080AFF300802060B079002852
:1009100000F022864FF0000B012600F01EBE4F486B
:1009200000220530A7F87E00306824F065FF3468A7
:100930004FF00008029DCBF81C40AFF30080AFF3EE
:100940000080AFF30080AFF30080A7F87A80ABF8A7
:1009500066800398019C002840F11E8130F02CFD38
:100960002ED8DFF80C0C203030F0E9FE01201434D2
:100970008BF8510025E092F8202052077FF54EAF0A
:1009800000293FF4CBAE49E74FF0000B039EFAE19C
:10099000BAF80200DFF8D81B039E4FF0010B8885E0
:1009A000F9E115208AF80500039E4FF0000BF2E1F3
:1009B000049849F0020980F805A04FF0000BDBE134
:1009C0001034308DAFF30080AFF30080AFF30080C0
:1009D000AFF30080002800F0DD80308D0138DAE0D0
:1009E000B08A3887AFF30080AFF30080AFF30080A8
:1009F000AFF30080F08A7887AFF30080AFF3008018
:100A0000AFF30080AFF30080308BB8870120AFF3E5
:100A10000080AFF30080AFF30080AFF3008096F862
:100A20002610DDE9014521FA00F000F00100F8850B
:100A300096F82700AFF30080AFF30080AFF300809B
:100A4000AFF30080C00748F206000BD1042215E086
:100A50009820094030100840302009400680FFFFF0
:100A6000882B012009300022A7F87A00AFF300801C
:100A7000AFF30080AFF30080AFF30080A7F87A00F7
:100A8000ABF8662007F19001306824F0B5FE002035
:100A9000AFF30080AFF30080AFF30080AFF30080CE
:100AA000A7F87E003168CBF81C109AF83610AFF327
:100AB0000080AFF30080AFF30080AFF30080B98314
:100AC000AFF30080AFF30080AFF30080AFF300809E
:100AD00078800398002840F1508430F06DFC00F2DB
:100AE0004B84DFF88C0A203030F029FE01203C34A2
:100AF0008BF8510000F041BCBBF85C00891A9BF8F0
:100B00005020AAB19BF84F2092B980B241F28832AE
:100B100000FB0210BBF80C1042F2107201F003014E
:100B2000022908BF43F698221044A0F5167413E07A
:100B300080B241F28832BBF80C4000FB02179BF8F0
:100B4000520021462AF0D0F80744222021462AF0FC
:100B5000CBF8384400F5AF549BF84D0004F6C417A9
:100B600060B1BBF86420D8F8380021462CF02AFA8E
:100B700042F210712144884298BF0746039E2C46DA
:100B80004020C8F8387088F8050049F002094FF095
:100B9000000BF9E000207883AFF30080AFF3008012
:100BA000AFF30080AFF30080FC83AFF30080AFF3BE
:100BB0000080AFF30080AFF3008096F8270010218B
:100BC00001EA001002217885AFF30080AFF30080C6
:100BD000AFF30080AFF30080708BA7F84400AFF351
:100BE0000080AFF30080AFF30080AFF30080B08BE4
:100BF000A7F84600AFF30080AFF30080AFF30080AA
:100C0000AFF30080F08BA7F84800AFF30080AFF39C
:100C10000080AFF30080AFF3008096F8260000F06C
:100C200001003886AFF30080AFF30080AFF300809F
:100C3000AFF3008096F8270001EA90007880AFF3C8
:100C40000080AFF30080AFF30080AFF30080A7F81F
:100C50003880AFF30080AFF30080AFF30080AFF3D4
:100C60000080A7F83A80AFF30080AFF30080AFF3C5
:100C70000080AFF30080A7F83C80AFF30080AFF3B3
:100C80000080AFF30080AFF30080A7F82E8056F805
:100C9000047F002F66D0BC7B04F1190027F02AFDE9
:100CA000CBF8540004F11B0027F024FDCBF86000C2
:100CB000B889222841D3B97B07F1100001441531CE
:100CC000CBF85810AFF30080AFF30080AFF3008093
:100CD000AFF300800988ABF85C10B97B0144B1F830
:100CE00017809AF8361091B3B8F1000F00F07A83AC
:100CF00001248BF84D40B97B03270844022101757C
:100D00005C4940F2E140AFF30080AFF30080AFF305
:100D10000080AFF30080C1F8B8004FEA8800564960
:100D2000AFF30080AFF30080AFF30080AFF300803B
:100D30000330C884ABF8648058E30024ABF85C400F
:100D40009AF83600002840F04E834FF000084A49D8
:100D50000020AFF30080AFF30080AFF30080AFF36B
:100D60000080C8840327012440E30498DFF80018BA
:100D70004FF0010B40888885039E600703D54046ED
:100D800000211EF059FA2C46BBF1000F18BF4FF09E
:100D9000010BDDF810A0DFF8D407002180F848101F
:100DA00030F000FC5FEA897001D43EBB35E0DFF82B
:100DB000BC0790F84C1081B93049AFF30080AFF315
:100DC0000080AFF30080AFF300800988DAF83820A4
:100DD0000131118590F84C1081B190F8500068B144
:100DE0002648AFF30080AFF30080AFF30080AFF38D
:100DF00000800088DAF83C1001300885DFF86C07C5
:100E0000402190F84C00002808BF3C215AF801000E
:100E1000DFF85C17096915F0CFFF9AF80500032881
:100E200040F0BD80E0030ED5DFF840073C2190F88C
:100E30004C00002808BF38215AF801000C302CF073
:100E40005BFF24F48034600340F17980DFF81C47B5
:100E500094F84F00A0B194F84E0088B10A2000BF6A
:100E600000BF4FF0010B0DE0882B01201E74030022
:100E70006032012030100840302009404A200940EB
:100E80004FF0000BE269002A59D094F910000028B5
:100E900055D4C1B294F84C008E4B8F4D02EBC10279
:100EA00003F58877002808BF03F19007B4F866308F
:100EB000AFF30080AFF30080AFF30080AFF30080AA
:100EC00007EBC10047F8313047F8313047F831308F
:100ED00047F8313047F83130D2E90126AFF30080CE
:100EE000AFF30080AFF30080AFF300802D885A404D
:100EF000ABB24660002B154608BF45F4004547F8E5
:100F0000315047F8315047F8315047F8315047F8E1
:100F1000315093B97049AFF30080AFF30080AFF365
:100F20000080AFF300800988090406D022F4004154
:100F300001600160016001600160FF202074BBF16D
:100F4000000F2CD05646DFF824A64FF496779AF877
:100F50002300BAF8211041EA0044200604F03F0BB8
:100F600058BF1E27B58E58461FF0BAFE8046304641
:100F7000049696F8310035B1C4F30C217943A942A7
:100F800001D9422007E0B8F1000F03D041460BF031
:100F900053FEA8B18220049949F0020948715FEA22
:100FA000897009D5DFF8C4050021C16116F084FD00
:100FB0002AF054FB2EF0F5FB484605B0BDE8F08F53
:100FC0009AF84C00454C002800F067800498C16BEB
:100FD0009AF82300400902282ED001285DD105236C
:100FE000488E0A8EC98DAFF30080AFF30080AFF357
:100FF0000080AFF30080C4F87031AFF30080AFF32E
:101000000080AFF30080AFF30080DAF86030198021
:10101000AFF30080AFF30080AFF30080AFF3008048
:10102000DAF860305A80AFF30080AFF30080AFF39E
:101030000080AFF300802BE00523088FCA8E898ED5
:10104000AFF30080AFF30080AFF30080AFF3008018
:10105000C4F87031AFF30080AFF30080AFF30080CD
:10106000AFF30080DAF860301980AFF30080AFF39F
:101070000080AFF30080AFF30080DAF860305A8070
:10108000AFF30080AFF30080AFF30080AFF30080D8
:10109000DAF860209080AAF864101148AFF300805D
:1010A000AFF30080AFF30080AFF3008001689AF8DF
:1010B0004E00DAF81820CDE9022198B1DFF8B074BB
:1010C00037F82C0F2CF006FE0020049D8AF84E0005
:1010D0000AE000BF30200940B0200940301008402D
:1010E00098200940049DAF1C3988284615F008FB5C
:1010F00001909AF82300BAF821204FF496739AF8D9
:101100004C1042EA004212F08000C2F30C2208BFE9
:101110001E2302FB03F748F20E33BA00002892B2F6
:1011200008BF40F61B53BC0B02FB03F663439B0A4C
:1011300003EB96633C26002908BF3826A959898D00
:101140004A436143A34C03EB9262002802EB9121D6
:101150004FF4826201F150064FF4966108BF782186
:10116000AFF30080AFF30080AFF30080AFF30080F7
:1011700001EB4600BAF80C1001F00301012908BF89
:101180004FF46D72022908BF40F66222002110441C
:10119000A4F86600404605F015FC18F001F80BF1C4
:1011A0004000AFF30080AFF30080AFF30080AFF3F7
:1011B000008089496081AFF30080AFF30080AFF316
:1011C0000080AFF300800988AFF30080AFF30080A8
:1011D000AFF30080AFF3008041F00401E183DDE96B
:1011E00001211144039A31447C4E02EB8702511ACB
:1011F000A1F5C8759AF8041061B17949AFF3008080
:10120000AFF30080AFF30080AFF3008081EA0060AD
:10121000C6F810049AF84C0078B19AF84D0060B105
:10122000AFF30080AFF30080AFF30080AFF3008036
:10123000BAF8640080000330E084BAF80C10FF2094
:1012400029F052FDCA4F284400F1500107F1200057
:1012500030F07BFA284601212FF05DFA1028BFF408
:101260009AAE2546049C0320607125F033FFBE48EA
:10127000302148F23112AFF30080AFF30080AFF3BA
:101280000080AFF30080008801EA00119AF8063070
:1012900048F2B110002B08BF81EA02002AF09EFA42
:1012A0002DF03AFA9AF84C000021AFF30080AFF32A
:1012B0000080AFF30080AFF30080A5F88C10002809
:1012C00038D094F83200AB4620F074FB0720AFF31F
:1012D0000080AFF30080AFF30080AFF30080306098
:1012E0009AF84D00002836D00498BAF80C503C69A2
:1012F00000F138082220294629F0F6FC05F0030108
:1013000042F210722044022908BF43F6982210448A
:10131000BAF8642000F6A66140462DF010F8AFF34D
:101320000080AFF30080AFF30080AFF30080ABF834
:10133000240010E094F8320020F03CFB0620AFF3CC
:101340000080AFF30080AFF30080AFF30080306027
:10135000082000BF00BF9AF8060000283FF41FAE27
:101360009AF84C004021002808BF3C2104984058BE
:10137000396915F021FD12E63834AFF30080AFF380
:101380000080AFF30080AFF30080FC83AFF30080F8
:10139000AFF30080AFF30080AFF3008096F8270032
:1013A000202101EA400160F383017985308DAFF39C
:1013B0000080AFF30080AFF30080AFF3008010B186
:1013C000308D013800E000204FF000083E46788361
:1013D0001FE000BF302009404E2009403010084077
:1013E000D6BE898E002482274FF0000800205A467E
:1013F0000121002342F8380FC2F80A001072506031
:1014000030460FF057FF002800F06D80554E002C3D
:101410005BD05548302148F23112AFF30080AFF372
:101420000080AFF30080AFF30080008801EA001174
:101430009BF8063048F2B110002B08BF81EA020089
:101440002AF0CCF99BF84C402DF066F9022000BF41
:1014500000BF0020AFF30080AFF30080AFF3008047
:10146000AFF30080002CA6F88C003FD09AF8320031
:101470000021374620F09EFA39490720AFF300805B
:10148000AFF30080AFF30080AFF3008008609BF8FB
:101490004D00049C002856D00398002838D5E80752
:1014A00036D10020AFF30080AFF30080AFF30080AF
:1014B000AFF30080B884AFF30080AFF30080AFF3E8
:1014C0000080AFF30080F8843DE00F2F4FF0000064
:1014D0008AF805704FF0000B88BF0120049C4FEA8A
:1014E0004009FFF79ABC8320FEF733BF9AF8320019
:1014F000002120F05FFA1A490620AFF30080AFF315
:101500000080AFF30080AFF300800860049C1AE015
:101510001748BBF80C100AF138040669222029F09C
:10152000E3FB304442F22E21424601442046049C13
:101530002CF005FFAFF30080AFF30080AFF3008025
:10154000AFF30080B88403204FF0000B4FF0000988
:101550008AF80500FFF761BC039E2C46FFF71BBC11
:10156000301008403020094034200940882B0120E9
:10157000603201202DE9F04F85B0834690460C463D
:10158000500406D49BF805704FF0000A0026002591
:10159000DAE0A14626F094FA824630F0C4F8DFF88B
:1015A000D04A9BF83050142104F1200084F84C50AC
:1015B00030F004F805F00100C5F3400100260844AE
:1015C000C5F38001A4F8356084F83760C74D08443E
:1015D000C74984F83400C748AFF30080AFF30080F8
:1015E000AFF30080AFF30080C0F81014C248AFF32F
:1015F0000080AFF30080AFF30080AFF3008068613C
:10160000BE48AFF30080AFF30080AFF30080AFF3CC
:1016100000800088E081AFF30080AFF30080AFF37B
:101620000080AFF30080E0892BF0E0FCA88110205F
:10163000AFF30080AFF30080AFF30080AFF3008022
:1016400084F848602E836071DFF8AC0CC0780F28F6
:101650001CBF9BF8320010F0010009D02CF098FA62
:101660004FF400102DF084FE4FF400102AF0B6F86D
:1016700084F85160A4F84F60BBF802002CF02AFBFC
:10168000032858D11DF00EF92081DBF83C002E46CE
:101690000025656130F02CF821F084FA6081AFF309
:1016A0000080AFF30080AFF30080AFF30080DBF881
:1016B0003C00008B7086AFF30080AFF30080AFF387
:1016C0000080AFF30080DBF83C00408BB086AFF3C6
:1016D0000080AFF30080AFF30080AFF30080DBF851
:1016E0003C00808BF086AFF30080AFF30080AFF357
:1016F0000080AFF30080DBF83C0090F82410C1F3C9
:101700004001B1858068002800F0CF81817B0144D1
:10171000C97B01F00F01072909D8DFE811F0C201E8
:1017200087010800080008000800C8015B020025C6
:1017300084F84D50B9E1074600250F2F8BF805704E
:101740004C4688BF45F00205032F63D114F4D87FBF
:101750000396CDF800A062D04046DFF81499CDF88A
:1017600010B028F4803B4FEAC4580294064601901A
:101770006348AFF30080AFF30080AFF30080AFF3B6
:101780000080006804285BD30020B2461DF0DCFC1A
:10179000052111FA80F4D9F8140024F00307394622
:1017A00026F0E0FC0646D9F8140086421CBFC9F8B2
:1017B000146045F00805A6B3F089A108304400F193
:1017C0001004204618F0DAFFB8F1000F13D599F88D
:1017D0004F0080B1606800F47020B0F5403F0AD13E
:1017E00020462AF0E1FDC00644BF002089F83500FC
:1017F000012089F85100F08999F807203118384400
:10180000F0810498CA74C06B2FF072FF45F0040594
:101810005E46ADE7A80700F1768400F07ABC464644
:1018200019E085205646012189F805003148AFF3BB
:101830000080AFF30080AFF30080AFF30080016061
:1018400099F80600DDF810B0DDE9018418B1DFF881
:10185000580C2FF0D9FDDFF84C1CC6F38010C97866
:101860000F2910D0A1020ED5DFF8241C0122AFF3FE
:101870000080AFF30080AFF30080AFF3008081F809
:1018800048201C490A6040EA0509C8F38047F00572
:1018900004D5DFF8FC1B012281F84E20E10735D08A
:1018A00016F4802132D11749AFF30080AFF30080E6
:1018B000AFF30080AFF30080098889B204292ED1EC
:1018C0001148DFF8CC1B4022AFF30080AFF300805B
:1018D000AFF30080AFF3008000684A718969401A55
:1018E000CBF83800032000BF00BF64E0302009407F
:1018F000D6BE898E30100840005555553420094019
:10190000CC110840062009409820094020045FD5EA
:10191000DFF87C0B90F84810B1B3182044E0B20512
:101920002BD4DFF86C5B002841D407293FD095F811
:101930004E0000283BD1022903D195F8350000283C
:1019400039D195F84C00002800F06982C048052183
:10195000AFF30080AFF30080AFF30080AFF30080FF
:10196000C0F87011A87918B1DFF83C0B2FF04CFDCE
:1019700016F0A2F80120002729E003202CF02CFF0C
:10198000DFF80C1B487116E0407910280CD1B148E3
:10199000AFF30080AFF30080AFF30080AFF30080BF
:1019A000008880B22AF06EF98BF805000BE0022067
:1019B0002CF012FF6871DFF8D80A40798BF8050027
:1019C000032000BF00BF49F0020900270020039058
:1019D000F00305D5DBF83C002FF08AFE26F48036B4
:1019E0000398002800F0E982DFF8A45A049795F9DB
:1019F0004C80B8F1000F17D49BF8330008F00701B2
:101A0000052888BF00200239052900F22781C20776
:101A1000DFE811F00600110109010D0103011901B0
:101A200034464FF026081CE134461AE1AFF300803B
:101A3000AFF30080AFF30080AFF30080DBF83C0031
:101A4000854903270525C08BA1F84400AFF300802A
:101A5000AFF30080AFF30080AFF30080DBF83C0011
:101A6000008CA1F84600AFF30080AFF30080AFF325
:101A70000080AFF30080DBF83C00408CA1F8480008
:101A8000AFF30080AFF30080AFF30080AFF30080CE
:101A9000DBF83C0090F8240000F0010008860120EB
:101AA00008E00120032584F84D00032704E001200D
:101AB0000327022584F84D0094F84F0058B1002008
:101AC0002246012142F8380FC2F80A001072506015
:101AD000DBF83C0003E0DBF83C0002210022083088
:101AE00000230FF0E7FB002859D0013805F0020170
:101AF00018BF0120012282EA510141EA0006012EAD
:101B000052D1554B0020AFF30080AFF30080AFF30C
:101B10000080AFF300800422A3F86E50AFF3008082
:101B2000AFF30080AFF30080AFF30080D883AFF352
:101B30000080AFF30080AFF30080AFF30080DBF8EC
:101B40003C1091F8251001F003015985AFF3008096
:101B5000AFF30080AFF30080AFF30080DBF83C1000
:101B600091F8251002EA51011980AFF30080AFF31C
:101B70000080AFF30080AFF300802FF027FCC2F3AA
:101B800000125A80AA0711D4AFF30080AFF300808F
:101B9000AFF30080AFF30080A3F87A00CDE083209C
:101BA00002258BF80500AEE28327FCE091F82520A2
:101BB0004868D10740F0AF80510747F6F573AFF39F
:101BC0000080AFF30080AFF30080AFF300802EF011
:101BD00099FDABE00121002584F84F1084F84D50A9
:101BE000817B0144497C890600F01781002114F0B3
:101BF000D7F894F8350000283FF457AFBBF802102F
:101C000094F8230001F00301B1EB501F1CBF012029
:101C100084F85000032700254EE71321344661F372
:101C20005F0080461DE034464FF0270819E0344637
:101C30004FF0270802E034464FF02608002A08BF7C
:101C40004FF025080DE02521344601EB500808E04F
:101C500030100840062009403020094034464FF03B
:101C60002508A98995F8200029F03EF85FFA88FA3E
:101C7000074650461FF034F849F0020530B10646D9
:101C80009BF8310031460AF0D7FF20B18220049F33
:101C90008BF8050092E13046012104F093FE17F025
:101CA0007FFA600409D49BF83400002800F091808A
:101CB00041F288302EF010FCE4E00099584623F001
:101CC000D3F804460F2800F2A680DFF8C46796F820
:101CD0004F0068B196F8350050B196F84C1096F860
:101CE0005020384614F0CAF8002808BF6FF07D0471
:101CF000DFF8B477DBF84000396912F077F8B0719B
:101D000097F82000002186F84E10800700F0BB8075
:101D100029F07CFDB7E0D049AFF30080AFF300803D
:101D2000AFF30080AFF3008000220131CB4BA3F86A
:101D30007A1003F1900123F05FFDE8070CD1C74949
:101D40000020AFF30080AFF30080AFF30080AFF36B
:101D50000080A1F87E0026E0DBF83C10BF4D91F832
:101D60002520086891070DD4510747F6F573AFF3A6
:101D70000080AFF30080AFF30080AFF300802EF05F
:101D8000C1FC0AE0B449AFF30080AFF30080AFF3C9
:101D90000080AFF3008000220131A5F87E1005F528
:101DA000887123F029FD94F84F0000283FF4C4AC5B
:101DB0002FF007FB48B102210172A16B884201D1CB
:101DC0000020A0631025FFF7B8BC84206071FFF7E6
:101DD000B3BCDFF8BC6696F84F00002850D096F8E8
:101DE000350000284CD01D201E2100EB9700B0FBD1
:101DF000F1F04FF4A561C0EB001001EBC0002EF034
:101E00006BFB96F84C1096F850200446384614F0B8
:101E100035F8C0BB8224049F39E084274CE695F84E
:101E2000350000283FF4C7AD95F82300B5F8211020
:101E300041EA00408A49084080287FF4BCAD8948C7
:101E40000721AFF30080AFF30080AFF30080AFF362
:101E50000080C0F8701115F02FFE95F85000002892
:101E600000F01183BBF8021095F8230049F40049F3
:101E700001F0040141EA5010DFF82C168885A5E531
:101E80002FF0EAFA0446E0B2049F102802D38BF840
:101E9000054093E00020714A4FFA88F4AFF30080C8
:101EA000AFF30080AFF30080AFF30080DFF8E055C0
:101EB000BAF1400FA2F88A0038BF48F04000002C69
:101EC000924648BF08F07F00AFF30080AFF3008078
:101ED000AFF30080AFF30080C1B25181614A29792C
:101EE00061B16149AFF30080AFF30080AFF30080D0
:101EF000AFF3008081EA0060C2F8100495F84D004D
:101F0000C0B125F0E7F85948302148F23112AFF35B
:101F10000080AFF30080AFF30080AFF30080008853
:101F200001EA0011AB7948F2B110002B08BF81EA39
:101F3000020001E048F2010029F050FC0126AFF355
:101F40000080AFF30080AFF30080AFF3008000218A
:101F50000025AAF88C609BF832001FF02BFD2CF0B6
:101F6000DBFB022000BF00BF05203E49AFF300802D
:101F7000AFF30080AFF30080AFF30080B4F1FF3F18
:101F8000086016DDDFF808256FF0240050FA88F0AD
:101F900092F84C1006FA00F021EA000082F84C009A
:101FA0009BF8341049B140B99BF8300082F84C00DE
:101FB00003E0DFF8DC0480F84C504D46002F00F0C1
:101FC0009C80DFF8CCA4BAF8210000F03F09484615
:101FD0001EF086FE30B104469BF8310021460AF01F
:101FE0002BFE08B1822084E02046012104F0EAFCA7
:101FF00017F0D6F8DBF83C0086683EB3BAF80C1050
:102000009AF820009AF8504028F06EFE80464CB1B5
:10201000DFF89404808D2BF05DFE002008F5F07849
:102020008AF85000B07B3044C17B01F00F010729D2
:102030000FD1447C3046002113F0B2FEA0090228E3
:102040002BD0012816D0B0BB002037E04FF000089D
:1020500036E082202AE000BF0A80FFFF30200940DE
:1020600080FF1F0030100840D6BE898E3420094002
:10207000882B01209AF83500A0B901208AF84D007C
:102080003068A8B3DBF83C000AF1380202212FF0D7
:10209000D9F90746012201231CE09AF835000028EF
:1020A00000F0888100208AF84D0084208BF805001C
:1020B00045F0020504E000208AF835008AF84D005A
:1020C000DBF83C000AF1380201212FF0BBF907468A
:1020D0000022002367B1781EB0FA80F04009064262
:1020E00006D1781E82F0010118BF0120084314D1E7
:1020F00083208BF8050045F00205A80709D5DFF815
:10210000A8032FF081F915F0D7FC29F0A7FA2DF0DC
:1021100048FB284605B0BDE8F08F08F5A5601D21F5
:10212000CDE90232049501EB90001E21B0FBF1F0E5
:102130009AF85110C0EB0010B1B1BAF80C404FEA58
:10214000C0089AF85300214628F0CEFD05460C2021
:10215000214628F0C9FD00218AF8511008EB05013D
:10216000084400F5976002E0082101EBC0002EF062
:10217000B3F980469AF8350078B1BAF80C109AF89D
:10218000200028F0B1FD9AF84C109AF8502013F076
:1021900075FE002808BF6FF07D08049DAFF3008036
:1021A000AFF30080AFF30080AFF30080BB4C029828
:1021B000A4F86E000420AFF30080AFF30080AFF30B
:1021C0000080AFF30080E083AFF30080AFF30080C6
:1021D000AFF30080AFF30080DBF83C1091F82510DE
:1021E00001F003016185AFF30080AFF30080AFF32E
:1021F0000080AFF30080DBF83C1091F8251000EA76
:1022000051002080AFF30080AFF30080AFF3008077
:10221000AFF30080DBF83C0090F82500C0F300101D
:1022200060809AF84900AFF30080AFF30080AFF30D
:102230000080AFF30080618821F0040141EA800052
:102240006080BEB12FF0C2F84868D10748F20A0199
:102250001CD1530702F00402AFF30080AFF30080FB
:10226000AFF30080AFF3008000EAE37001EAE371AE
:10227000520015E00020AFF30080AFF30080AFF311
:102280000080AFF30080A4F87A000FE0AFF3008085
:10229000AFF30080AFF30080AFF300800131002284
:1022A000A4F87A1004F1900123F0A6FA0398B8B1CB
:1022B0002FF08CF80868910748F20A011ED45307E2
:1022C00002F00402AFF30080AFF30080AFF30080B0
:1022D000AFF3008000EAE37001EAE371520017E017
:1022E0000020AFF30080AFF30080AFF30080AFF3C6
:1022F0000080A4F87E0011E01E740300AFF300809C
:10230000AFF30080AFF30080AFF300800131002213
:10231000A4F87E1004F5887123F06EFA5FFA88F055
:10232000102802D38BF80580E5E60020AFF300808B
:10233000AFF30080AFF30080AFF30080554EA4F8F8
:102340008A0009F14000AFF30080AFF30080AFF3E3
:102350000080AFF3008060819AF8041061B14E49AB
:10236000AFF30080AFF30080AFF30080AFF30080E5
:1023700081EA0060C6F810049AF84D0000284BD09E
:1023800024F0A8FE4648302148F23112AFF3008015
:10239000AFF30080AFF30080AFF30080008801EA64
:1023A00000119AF8063048F2B110002B08BF81EAFC
:1023B000020033E001208AF84D003468002C3FF41D
:1023C00097AEA07B2044C17B01F00F0107290BD100
:1023D000407C3F2808D8B07B3044007C0B3000F0B4
:1023E000FC01204613F0DCFCDBF83C000AF138026B
:1023F0000221002308300EF05DFF0746A07B022378
:1024000000222044007C8AF85200B07B3044012630
:10241000007C8AF853005DE648F2010029F0DEF9FD
:102420002CF07AF90120AFF30080AFF30080AFF316
:102430000080AFF3008000214FF00008A4F88C006A
:102440009BF832001FF0B6FA0520AFF30080AFF31F
:102450000080AFF30080AFF3008084243060022658
:102460002EF0AFFF40B10672DAF83810884208BF8C
:10247000CAF83880013F01E08AF80540002FEFD10B
:1024800045F0100539E600200127FFF7A0BA00BF8C
:10249000882B012030100840D6BE898E302009409C
:1024A000342009401E74030060320120B1F1FF3F67
:1024B000C4BF002070472DE9F04F8BB0DFF8E879FA
:1024C0000D4638781EF068F8002800F0A88482468F
:1024D0000078A22851D0B02840F09E84DFF8D86957
:1024E0000020ADF82600706838B92EF04DFD2FF0B1
:1024F0000DFB0028706000F0898407F114080021AA
:102500001822069540462EF021F99AF804104FF053
:102510000109881E162800F2728401310591DFE856
:1025200010F017006E046E046E04CB006E046C0095
:102530006E04CC016E04FB016E0474006E04400155
:102540006E04BD016E046E046E046E026E042E02F3
:102550002EF01AFD2EF0BAFD2BF0DEFF002800F061
:102560001283BAF80800B98A4FF00109884238BFCF
:1025700001460320B98200F031BC9AF805006528B5
:102580002DD107F10C0420462FF0BCFAC0B106464D
:10259000817A008906F10C08424613F06DFF074668
:1025A000142800D067B9204631462DF079FC142F4D
:1025B00003D1B17A40462EF054F830462FF0AAFAF3
:1025C00020462EF05EFF50B1DFF8E40800210170D4
:1025D000DFF8D808DFF8DC180078087002E0DFF8D0
:1025E000CC080078FF2800F0178451462BF040FFFC
:1025F000002840F0118400F012BC0DF12602504674
:1026000000210EF0A1F80646D0E32EF047FDBA8A6D
:10261000A0F1010B0146079007F1020900241FFAFF
:102620008BF00890BAF80C108C4280F0CA8290B2FD
:10263000834540F3C682DAF808000DF12A0130F82C
:10264000140025F037FF002800F0C3820025014662
:10265000B0467368BAF802009AF80460BDF82A2000
:10266000CDF800900195089DCDE9025608F012FCC6
:10267000002840F0B082B86940B9BAF802000F21D2
:102680002EF0A9FE0028B86100F0D382B98A7A88BA
:10269000079D464653180844AB4222BFABEB0102EC
:1026A0007A8092B2D8F804102EF070FA7888B98A3D
:1026B00001340A18BA82B5E72EF0F0FC2EF086F944
:1026C0000DF12A022EF0B4FE0446F01F711F4FF0E8
:1026D0000008BD1C80B2089107901FFA88F9002CF1
:1026E00000F0F1810898484540F3ED81DFF8C80714
:1026F0009AF804103E46BDF82A20079F4FF0000BC1
:102700004368BAF80200039121460297CDE9005BC5
:10271000374608F0BFFBE0B9BAF81020788882424B
:1027200015D1DFF894074168DAF814002CF070FF37
:1027300068B1B86940B9BAF8020007212EF04BFE23
:102740000028B86100F02B83B4F80AB001E04FF024
:10275000000BBAF80A10BDF82A2020460AAB1BF07D
:10276000D7F90446BBF1000FB7D0B86908F10101F1
:1027700089B200F809B04FEA1B20BA69505408F139
:10278000020081B214B12EF0D0FA02E0BA69FF2043
:10279000505408F10302B96908F1040892B2885450
:1027A0009BE72EF07BFC2EF011F90DF12A022EF0A2
:1027B0003FFE0446B01F002507F102094FF0000854
:1027C0001FFA80FB0890002C00F0C081BAF80200CC
:1027D000BDF82A2021461DF033F8002840F0BE81C4
:1027E000DFF8D4069AF80410BDF82A204368BAF836
:1027F0000200CDE902B12146CDE9009508F04AFB7F
:10280000002840F0AB811FFA88F666B17888F98A13
:10281000021D8A4240F09A8108993044884200F3B0
:102820009581B8690BE0BAF8020011212EF0D3FDB2
:102830000028B86100F0808279880431F982A17A99
:1028400008F1010292B28155B869E17A81542046BB
:10285000BAF80A10BDF82A200AAB1BF059F9044651
:1028600008F1020081B214B12EF05FFA02E0BA69F9
:10287000FF20505408F10302B96908F1040692B22E
:102880008854DFF83416B8697A88496810FA86F0F7
:102890002EF07CF9788800EB060894E79AF810008F
:1028A000C146022840F019819AF81100012840F031
:1028B000148103264FF0000812E1BAF808000DF168
:1028C0002A0125F0F7FD002800F035810446BAF80A
:1028D00002000AAB0B214FF6FF721BF067FF0028C6
:1028E000B86100F035819AF80410BDF828600346FD
:1028F000BAF80200BDF82A204FF0000CCDE9008C98
:10290000CDE90261214608F0C5FA80BBBAF80200A1
:1029100041462AF09BF885E1BAF808000DF12A013A
:1029200025F0C8FD002800F006810446BAF8020030
:102930000AAB0D214FF6FF721BF038FF0028B8617B
:1029400000F00681BAF80A100346BAF802009AF8B5
:1029500004C0BDF82860BDF82A20CDE900812146D9
:10296000CDE9026C08F096FA002800F05681064680
:10297000B86918F0B7FA162E40F0DE8055E1CDF8B0
:102980001080BAF8028040462AF034FC002800F09B
:102990006C8286469AF80800012840F0618296F819
:1029A00002904FF0000C4FF0000B0020CDF820E01B
:1029B000C6B24E4580F04981DEF8042006EB46049D
:1029C00032F82430002B00F04181BCF1000F0DD013
:1029D0009C4540F0718102EB84028CB253889C428A
:1029E00040F06A8192881144934406E002EB84012E
:1029F0009C46B1F804B0498859440130D8E7BAF888
:102A0000020001212BF068FF002800F0C9800AF1C4
:102A1000080B0DF12A01BBF8000025F04BFD002842
:102A200000F0E9800446007AB146800600F1E780B4
:102A3000BAF8024020462AF0DDFB38B94FF6FF70A5
:102A40002AF0D8FB002800F0F280048099F80210E8
:102A50000C2201EB410102EB8101002202F10C0387
:102A6000994200F0E4804468A25A002A1A46F5D13F
:102A7000E01859460C220C382EF088F8404659468A
:102A80000C222EF083F8BAF80C20BAF802001721B5
:102A900000234FF000091BF089FE0028F86100F0C8
:102AA000F081BAF80C20DAF810102EF06FF8BAF8AE
:102AB0000200414629F08EFF064600284FF000092B
:102AC00018BF162674E15FEA08406ED04FEA9900FD
:102AD0002EF0FCFA29F0D4F950E000264FF001085E
:102AE000BAF808000DF12A0125F0E4FCB8F1000F56
:102AF00025D0044618B3207AC846800609D5BDF80B
:102B00002A002EF003F8002800F014812EF0F6FAC7
:102B10000646002E40F033819AF81140BAF80A3088
:102B2000DAF80C20BAF80810BAF80200002C00F00D
:102B30000D8152240CE10126BAF808000BE0B8F12F
:102B4000000FC84600F01A81012618E1002609E0AE
:102B5000BAF808001126ADF8260027E1064660897C
:102B6000ADF826005FEA084023D0F88A1FFA88F102
:102B7000B1FBF0F02EF0AAFA29F0AEF906460028D3
:102B800018BF162610E1BAF80800B98A884238BF83
:102B90000146BAF8020023F0B9F94FF001092EE11D
:102BA00014200E268AF8010000E1BAF808000A266F
:102BB000F8E0BAF80800002EADF8260008BF0A2693
:102BC000F2E0DDF81080BAF80200414629F02AFF51
:102BD00050E1012600E00646DAF80800DDF8108032
:102BE00030F81400ADF82600B869002800F0DE8047
:102BF00018F078F9DAE04FF001090126A1E0BDF8FC
:102C00002A002DF083FF002800F098802EF076FA3D
:102C100000283FF40DAF064691E0BAF802004146A5
:102C200029F0ECFE08B11626C0E00026BEE0092619
:102C300085E0DAF80800DDF810804FF00109112670
:102C400030F81400ADF82600B5E04846C0B20128BF
:102C50006AD95FEA0B402FD01FFA8BF022F0E4FE16
:102C6000DDF820E040B3B14505464FF0000838BF1D
:102C70004E4606EB46000026800007900798DEF8D7
:102C80000440B04200F0D0803444A16851B1A28821
:102C900015FA88F02DF07AFFA068B4F8049018F0C7
:102CA00021F9C84426B1204600210C222DF04EFD0A
:102CB000DDF820E00C36E1E701254FF0000B00269F
:102CC0007D48691E8078814280F0E180DEF80480D2
:102CD00038F80B10002900F0DA80854201D118265F
:102CE00006E008EB0B0016268089002808BF18268E
:102CF00008EB0B09BAF80200B9F80430D9F808203B
:102D0000B9F80240CDE900461DF0FEF8DDF820E0FC
:102D1000064628B1162E40F0B6800020C9F80800FB
:102D200001350BF10C0BCBE7DEF80440B4F804B02E
:102D3000A5687EE00E2622E0608932E00E264FF084
:102D40000109BBF80000ADF8260031E09AF8044014
:102D50004FF00009CDE900941DF0D6F816281CD0DC
:102D6000064658B99AF81100A8B9BAF802002DF031
:102D700085FD4FF0010980B1162619E05EB1BAF861
:102D80000800ADF826004FF001099AF8110000285C
:102D900018BF00260CE00026F5E70026F5E7BAF894
:102DA00008001126ADF82600DDF810804FF001096B
:102DB000B6B1162E14D09AF80100142810D09AF843
:102DC000040007F8140FBDF826003E7139467880DC
:102DD000BAF802002CF03CFE10B10120059001E091
:102DE000162E0CD10599BAF802004246CCB2214603
:102DF00019F048FE18B1404621462DF032FC5046ED
:102E000026F0A6F9069DB9F1000F05D09AF8041036
:102E10000AF108002DF025FC50462CF084F825F02E
:102E200000400BB0BDE8F08FA4F804B0A560BAF87C
:102E300002806088218818221FFA8BF3CDE90002F6
:102E400040462A461DF060F8DDF820E040B1064615
:102E5000162814D10020A060704623F075FB9CE674
:102E6000704623F071FBBAF8028040462DF0FEFC5C
:102E7000DDF810804FF001090028B3D1BFE72088AA
:102E800003E011265DE738F80B00ADF82600704628
:102E900023F05AFB4FF00109162EB0D0DDF8108058
:102EA000002EE0D084E700BF944201206248012058
:102EB0002E49012061480120F44001202DE9F04F06
:102EC0008BB00F460E46044617F8015B284639467C
:102ED0002CF00BF838B1284621463A460BB0BDE835
:102EE000F04F2EF073BD2A2D40D8DFE815F04C01CD
:102EF00081011501D6013F003F00E6019A01B001B2
:102F00001F02EA01FD001C013F003F0009013F00D4
:102F1000E800CF01AC0142004200FB013F00C900C4
:102F20003F003F003F0039003F003F003F003F00AF
:102F30003F003F002B002B002B003F003F003F00D5
:102F40003F003900DFF84409407910F0060F0DD03A
:102F5000204639462A460BB0BDE8F04F2EF0E9BDB9
:102F6000DFF828090079800700F1C28084F8215138
:102F700017E3142D04D194F86C00002800F081812F
:102F8000B6F80700B6F805C0B6F80320B6F8011089
:102F9000152D40F0F6818EB21B231B214FF0FB0E46
:102FA00044F290281B2E88BF3146FB2928BF71466A
:102FB0001B2E38BF4FF4A472FB2E88BF44F2902220
:102FC00096B21FFA8CF2B6F5A47F38BF1B21464596
:102FD00088BFFB211B2A88BF1346FB2B28BF7346E3
:102FE0001B2A38BF4FF4A470FB2A4FF4A47288BF89
:102FF00044F2902087B24FF4A470B7F5A47F38BF95
:103000001B2388BF3846B6F5A47F88BF324644F2FA
:103010009126424528BF4246B74224BF44F2902041
:10302000FB23A4F89431B4F88E3187B2A4F89A2126
:10303000A4F89611A4F89801BB4238BF1F46B7F513
:10304000296FB94698BF4FF4296994F8BA0104284A
:1030500018BFB946B4F8A2810428A4F8A29140F0A0
:103060003C822EF039FB0246B4F8A001A4F8A0215E
:10307000131A18BF012394F8BA01B4F8961139E273
:103080007178B078814208D111F00700387000F0F3
:10309000AF820139014200F02283204618211E220E
:1030A00024F0C8F9A1791E20002200231EF0E6FBBF
:1030B00094F8BC0140F0400084F8BC0176E27178DD
:1030C000B27820462EF07AFC94F87600012840F081
:1030D0007C8194F87700A0F10F01022980F07282C0
:1030E000012084F8690161E2012084F8FF005DE2BB
:1030F000204639462A460BB0BDE8F04F1FF041BBD1
:10310000A0792EF0C3FB002800F0658120460F2136
:103110003A2224F08FF949E23878012184F81F110E
:1031200084F8200142E294F81501012811D070784A
:10313000B11C022284F8180104F58D702DF008FAF4
:10314000014604F58E7002222DF002FA012084F867
:10315000150194F86C00002800F0938094F8170192
:10316000002840F0238294F81601002840F01E82C7
:1031700020460C2108F0E6FA002800F01A8201200F
:1031800084F8170112E27078B11C04F18E07DFF8A1
:103190000467022284F88C003846B04704F1900599
:1031A000014602222846B04704F192080146022255
:1031B0004046B04704F19409014602224846B04710
:1031C000014694F88C0080B12A88531E9BB2082BCC
:1031D00028BF0823834208D33B88934205D8062A98
:1031E00003D3B2F5486F40F2F18243F201004AE0A6
:1031F00004F16200394605222DF0AAF9014604F1D6
:10320000980002222DF0A4F92089B4F89810081A29
:1032100047F6FF7180B28842C0F0148142F6010087
:1032200031E038780E38082800F2C081DFE810F06D
:1032300009000302BE01BE010B00BE010D02BE016A
:10324000140203201AE0002084F86401AEE12EF09D
:10325000A1F994F8060100075EBF40F64800A4F803
:103260008E01A4F8920194F86C0050B12046092117
:1032700008F068FA002800F09C81022084F804011C
:1032800094E143F60150A4F81F018FE194F8050181
:10329000C00600F1E180122081E194F80501C00729
:1032A00040F0DD801A2084F8FD0094F8FC0001282D
:1032B00040F08F8120460D2109E1012084F8FE00B5
:1032C00074E194F89A00012877D101200B2184F849
:1032D000FC00002084F86C0084F86700A4F8F0007B
:1032E000204678E194F8060110F0090F00F05681AD
:1032F0007078B178084000F00700707094F8BD1144
:10330000014084F8BB1100F06E81481E084200F0B5
:103310006D81032900F2B9810220020600F0668166
:10332000084240F0B381C0B24008F6E72EF032F90F
:10333000022084F8040194F8060100075EBF40F6FD
:103340004800A4F88E01A4F89201DFF84005407807
:10335000800640F12B81B4F890011B280ED1B4F8FF
:103360008C011B280AD1B4F89201B0F5A47F05D1D5
:10337000B4F88E01B0F5A47F00F018812046142126
:1033800029E18BB21B2B18D3FB2B16D893B2B3F5C4
:10339000A47F12D344F29026B3420ED81FFA8CF3C6
:1033A0001B2B0AD3FB2B08D883B2B3F5A47F04D31D
:1033B00044F29126B342C0F06582204614211E22B9
:1033C0000BB0BDE8F04F24F035B800200BB0BDE8DD
:1033D000F04F2CF0E1BC94F80501800740F19F818B
:1033E000F068B6F80370B6F80550B6F80790B6F86E
:1033F0000AB096F809A008903069099070690A909F
:10340000B6F80100079005202EF003F9002800F01F
:103410008181208908A91FFA8BF21FFA89F8AEB2C0
:10342000CDE902A20491BAB23346CDE900800798F3
:10343000069281B220461AF020FA002800F08F810F
:103440001E2668E101200021E18384F85C0184F8F4
:1034500096002046012113E120461321A3E001201C
:10346000DFF830843946082284F80001002084F80F
:103470006C0084F8670004F1B400C047014604F111
:10348000BC000222C04704F1AC05014608222846D0
:10349000C0470646284608212BF080FC04F1A00511
:1034A000314604222846C047284604212BF076FCEA
:1034B00004F1A4002EF0CBF804F19C002EF0C4F827
:1034C00094F8FC00012840F08B8020460421F4226F
:1034D0000BB0BDE8F04F1AF06DBDB4F8923192B266
:1034E000934238BF1A46B4F8A031A4F8A021D31AE9
:1034F00018BF0123B4F890718EB2B74238BF3E4670
:10350000B4F89C11B9EB0807A4F89C6118BF012717
:1035100047EA0308771A18BF01272DF061FF86429A
:1035200002D2B4F89C0105E0B4F8A02194F8BA01E5
:103530002DF056FFA4F8B201B4F88C01B4F8943120
:1035400048EA0701984238BF0346B4F89E21A4F820
:103550009E31981A18BF0120934205D994F8B021E2
:1035600042F0800284F8B0210843142D0DD148B1F7
:10357000B4F8A021B4F89C11A079B4F8A251009538
:1035800022F0F4FD204615210DE094F8B01100283A
:1035900018BF41F0080141F020005AE0162084F8DD
:1035A00021012046072108F0CDF810B10BB0BDE88D
:1035B000F08FB7484FF4804100780BB0BDE8F04F72
:1035C00015F0F4B81628F1D194F8BC0140F00100D0
:1035D00072E520460D210BB0BDE8F04F1DF058BC40
:1035E0002046042176E094F8BA014FE008464FE007
:1035F00094F87700162806D194F8BA21A179002012
:1036000013461EF03BF9002084F8B60194F8BA0185
:103610000121B4F8A021B4F89C51012384F8B4012D
:1036200084F8BF1194F8BE1122F0D6F9854218D261
:10363000B4F89C0117E0012084F8680194F80501B2
:1036400000F0FD0084F80501B0E794F8B00140F007
:10365000120084F8B001A9E794F8BC0140F0120010
:103660002AE52DF034F8A4F8B2010120182184F8DD
:103670005C0194F8BC0140F0400084F8BC01204695
:103680000BB0BDE8F04F2EF06BBA042084F8BB01FC
:10369000C1B2042905D12EF01FF8A4F8A00194F8B6
:1036A000BB01C0B22BF003FCB4F8A02194F8BE110A
:1036B000B4F89C51012384F8B40122F08DF98542BD
:1036C00002D2B4F89C0101E02DF001F8A4F8B20197
:1036D000204617210BB0BDE8F04F19F0EBBA84F883
:1036E000BB012289B6F80310A4F8B811891A47F66D
:1036F000FF7289B29142BFF491AD0121042884F890
:10370000B6117FF485AF2DF0E7FFA4F8A00194F87F
:10371000BB017DE71A2694F80501400710D40F205D
:10372000072184F82101204608F00CF800287FF4D6
:103730003DAF57484FF48041007815F037F835E732
:1037400020460F21324623F075FEA1791FFA89F039
:10375000BAB2ABB20090304621F086FF26E7079858
:1037600004F5BC7309990A9AA4F876B184F874A197
:10377000A4F87291A4F87051A4F86E71A4F8949012
:10378000A4F89250A4F89070A4F86C01089807C3AC
:103790000020069AA4F88E00022084F88C00A08EE7
:1037A000C11DA4F88A10618EB2EB510F08BF86428A
:1037B00054D094F87600012838D194F877000F2877
:1037C00034D12046F1211DF063FB3AE04000520065
:1037D00084F88C00B4F89400A4F890205A00A4F85F
:1037E0008E2002220001A4F8940004F18A002CF03B
:1037F000AFFE2089B4F88A10081A47F6FF7180B22C
:103800008842BFF40BADB8F8001028880131484356
:10381000B9F80010B1EB400F31D90120002184F834
:103820005C0184F888002046E18329E794F8810050
:1038300018B194F877001A2819D12046F12119F00F
:1038400039FAB4F87031B4F86E21B4F86C11A0797B
:10385000B4F8724100941FF075F9A7E6E08EB8EB5A
:10386000101FA6D12046102119F024FA9EE60F2041
:10387000F32184F8860020461DF00AFB96E643F605
:10388000013000E56346FFF7CCBB00BFE234012006
:1038900045370120510503002DE9FE4F82461546AC
:1038A000500445D40F4611F4F87F00F0C480DFF8CF
:1038B000504825F4A0394FF0000B02978948AFF328
:1038C0000080AFF30080AFF30080AFF300800068AA
:1038D0000428C0F0C1800020A8461BF035FC05215B
:1038E00011FA80F5804805EA00076069394624F03E
:1038F00039FC0646606986421CBF66614BF0080BC6
:10390000002E00F09B80F089A90806F110052844DC
:1039100016F034FFF089E27929183844CA70F08132
:10392000DAF838002DF0C3FE4BF0040B4D46C5E726
:103930002C4624F0C5F880462DF0F5FEDAF83890D4
:103940006A496B4EDFF8B8B7D9E90550AFF300808C
:10395000AFF30080AFF30080AFF300800002C1F846
:103960001054AFF30080AFF30080AFF30080AFF3EB
:103970000080C6F80A005F48AFF30080AFF3008014
:10398000AFF30080AFF300800088ABF80E00AFF318
:103990000080AFF30080AFF30080AFF30080BBF88E
:1039A0000E0029F023FB70800020AFF30080AFF3FE
:1039B0000080AFF30080AFF30080A6F86200AFF3A1
:1039C0000080AFF30080AFF30080AFF300808BF88E
:1039D0004800B9F81200F08110208BF80500DFF8DC
:1039E0002407C0780F281CBF9AF8320010F001009D
:1039F00009D02AF0CDF84FF400102BF0B9FC4FF4A9
:103A0000001027F0EBFEBAF802002AF063F907462F
:103A10009AF830001DF064F938B106469AF8310082
:103A2000314609F009F9002866D082208AF805009D
:103A30000226254631E34FF0000B18E0852045466D
:103A4000012160712948AFF30080AFF30080AFF32C
:103A50000080AFF300800160A079029F38B1DFF8E9
:103A6000A80601220169DAF83C0008F03FFEB8041C
:103A700040F14F81DFF88886B8F80A402BF024FC2B
:103A8000261AB8F84240A64280F04381CDE901579A
:103A9000B8F84470144D4FF00209DAF838002AF0F3
:103AA0002CFC80B180F808908189D8F838209042A9
:103AB00004BF0020C8E90E00013F481D29462840E8
:103AC000241AA642E9D3019DB44240F01181B7F116
:103AD000FF3F40F30D814BF0100BA8F84470A8F89D
:103AE000426013E1CC110840FCFF01003010084097
:103AF0003A20094034200940032F40F06E8299F8A3
:103B00001000B0FA80F04109304602F05BFF15F07A
:103B100047FBB84E0020AFF30080AFF30080AFF357
:103B20000080AFF30080A6F880009AF93010CAB286
:103B3000402A38BF42F04000002948BF01F07F0012
:103B4000AFF30080AFF30080AFF30080AFF30080ED
:103B500030809BF8041061B1A74985EA0060AFF39B
:103B60000080AFF30080AFF30080AFF30080C1F8B6
:103B70001004FF20AFF30080AFF30080AFF30080AC
:103B8000AFF300804146F083504621F06DF90F28D5
:103B90003FF64CAFDAF83C00002800F02881DFF84F
:103BA00068150969AFF30080AFF30080AFF30080C0
:103BB000AFF30080C6F86A107F21AFF30080AFF347
:103BC0000080AFF30080AFF30080A6F85A104FF4E6
:103BD000FE41A0F801100178AFF30080AFF3008040
:103BE000AFF30080AFF30080C90740F00B810021E4
:103BF000A6F84010AFF30080AFF30080AFF3008071
:103C0000AFF30080A6F84210AFF30080AFF300805E
:103C1000AFF30080AFF30080A6F84410AFF300804C
:103C2000AFF30080AFF30080AFF30080A6F846103A
:103C3000AFF30080AFF30080AFF30080AFF30080FC
:103C4000A6F84810AFF30080AFF30080AFF3008018
:103C5000AFF30080A6F84A10AFF30080AFF3008006
:103C6000AFF30080AFF30080A6F84C10AFF30080F4
:103C7000AFF30080AFF30080AFF30080A6F84E10E2
:103C8000AFF30080AFF30080AFF30080AFF30080AC
:103C9000A6F85010AFF30080AFF30080AFF30080C0
:103CA000AFF30080A6F85210AFF30080AFF30080AE
:103CB000AFF30080AFF30080A6F85410AFF300809C
:103CC000AFF30080AFF30080AFF30080A6F856108A
:103CD000AFF30080AFF30080AFF30080AFF300805C
:103CE000A6F85810C170C0E902110161017510E118
:103CF0008420012188F805003F48AFF30080AFF32E
:103D00000080AFF30080AFF300800160029F45F4B4
:103D10000035DFF8F013C5F38010C9780F2910D0F3
:103D2000B9020ED5DFF8D8130122AFF30080AFF34C
:103D30000080AFF30080AFF3008081F848202E4967
:103D40000A6040EA0B0648F2010007423FD0032018
:103D500000BF00BF294846F00206AFF30080AFF372
:103D60000080AFF30080AFF300800088DAF83810ED
:103D70004882DFF88C0390F8481009B1182024E03D
:103D80004079102821D11E483904AFF30080AFF3E9
:103D90000080AFF30080AFF30080008812D44FF0B2
:103DA000FF3111FA80F1062900F29A811320DFE831
:103DB00011F00C0007009901970197019B019D01EB
:103DC000142002E080B227F05DFF8AF80500B007FA
:103DD00040F163819AF80520CB48103A0169DAF87E
:103DE0003C00B2FA82F2520908F080FC55E1002052
:103DF00092E000BF3A2009403010084048200940B6
:103E000006200940017AA6F84010AFF30080AFF316
:103E10000080AFF30080AFF30080417AA6F8421033
:103E2000AFF30080AFF30080AFF30080AFF300800A
:103E3000817AA6F84410AFF30080AFF30080AFF3AF
:103E40000080AFF30080C17AA6F84610AFF300807F
:103E5000AFF30080AFF30080AFF30080017BA6F8E2
:103E60004810AFF30080AFF30080AFF30080AFF3F2
:103E70000080417BA6F84A10AFF30080AFF30080CA
:103E8000AFF30080AFF30080817BA6F84C10AFF356
:103E90000080AFF30080AFF30080AFF30080C17B00
:103EA000A6F84E10AFF30080AFF30080AFF30080B0
:103EB000AFF30080017CA6F85010AFF30080AFF3A1
:103EC0000080AFF30080AFF30080417CA6F8521071
:103ED000AFF30080AFF30080AFF30080AFF300805A
:103EE000817CA6F85410AFF30080AFF30080AFF3ED
:103EF0000080AFF30080C17CA6F85610AFF30080BD
:103F0000AFF30080AFF30080AFF30080017DA6F82F
:103F100058100078C0F340008BF806009AF80400AF
:103F200000274FF00008012805D17748DAF8201063
:103F30000069A1EB000823F0CDF81AF0B3FCABF850
:103F40000800DAF83800CBF814702DF0B0FB1EF042
:103F500029FEABF80A0099F8100024F4803430B13F
:103F6000B9F8120000F01800B0FA80F047090020FC
:103F70005E46012502213B4646F8380FC6F80A0086
:103F800070604846324635720DF094F95B487021F6
:103F90004AF27112AFF30080AFF30080AFF30080FC
:103FA000AFF30080008801EA001116F8323C4AF2B3
:103FB000F110002B08BF81EA020027F00FFC99F8EE
:103FC0001000A0B1BAF83410132708EB0100002844
:103FD000C8BF032741B3012826DAF8B200218AF8C6
:103FE000057025460F2888BF01214E0055E0424844
:103FF000AFF30080AFF30080AFF30080AFF3008039
:104000000221A0F882502DF0A9FA2AF085FB0220A7
:1040100000BF00BF0420AFF30080AFF30080AFF318
:104020000080AFF3008029E0002908BF084632492C
:10403000AFF30080AFF30080AFF30080AFF30080F8
:10404000A1F85C000020AFF30080AFF30080AFF375
:104050000080AFF30080A1F8820012212DF07EFADB
:104060002AF05AFB022000BF00BFAFF30080AFF37D
:104070000080AFF30080AFF3008003201D490BF1F7
:104080003802002325460026086048464FF0FF31DD
:104090000DF010F903208AF805009AF805000328AE
:1040A00013D1E80305D5DAF838002DF000FB25F42C
:1040B0008035A80309D51249DAF83800002301F148
:1040C00038024FF0FF310DF0F5F8B00705D513F0C9
:1040D000F3FC27F0C3FA2BF064FB3046BDE8FE8FFB
:1040E000102072E6152070E641206EE602202AF0CC
:1040F00073FB6AE6301008403A200940342009403A
:10410000882B01201E740300603201202DE9F0434A
:104110008DB0044680780026102800F2A583DFE8E1
:1041200010F08000A303A303A303A3031100AC00BA
:10413000A3031100C4004600DC002500A303F30024
:104140004C005C036078FC2802D0002840F08C838F
:10415000E1786589277B0096201D05AA00232DF0B4
:10416000F1F9002800F0ED80012653E1267BA488B8
:10417000204624F01FFC002800F0758305462CF033
:10418000D5FB002840F06F83697900200023009060
:10419000A81D07AA2DF0D6F9002800F0C281DFF88B
:1041A0001007C078002840F0598320463DE1607830
:1041B000002800F044810025F6E2DFF8F466F06A9A
:1041C00028B143681BB1A088002100229847F178EC
:1041D000A088002900F0298124F0ECFB002800F0E1
:1041E00077810546A07AC0070ED0697900200022A9
:1041F00000230090A81D2DF0A5F928B168790228A8
:1042000002D3A089800507D5F07B022840F01C81ED
:10421000A07A000700F11881A08803212AF0CCF9C8
:1042200056E16078002840F01F832CF05FFE0446C2
:104230002CF0D6FF054628F051FFDFF880668DF898
:104240001C00022010212246B047032010212A46DC
:10425000B04707AA04200121B0479DF81C0040F098
:104260000200032840F0348101201BF075FA024659
:10427000062006212BF038FE2AE1A08825F056FA08
:104280002DF08EFA002840F02381DFF82446A07B31
:10429000012840F00E8129F0BFFD0020627D002141
:1042A000A073606A2CF052FA09E1E1780020002343
:1042B0000090201D07AA2DF045F9002840F0D38278
:1042C0009DF81C00252104F10C0200EB400001EBDD
:1042D000400004212BF008FEC5E22CF027FB00284B
:1042E00000F0C182DFF8C805C06A002800F0A18094
:1042F0000568002D00F09D802069227B637B618929
:104300000090E01CA847AEE26078062840F03581B6
:10431000A08824F04FFB002800F02F81DFF89015D3
:10432000897C0139032900F22881DFE811F00400BB
:104330001E01180123014179A088002216F0ECFF2C
:104340001BE1B7F1080618BF01269DF814002AF0FA
:1043500018F8DFF85C95804699F8170080002DF07A
:10436000D5FB002800F0B180044699F803009DF8C1
:10437000141042463B460238B0FA80F040090090E3
:1043800028461EF09CF907AF0021142238462CF075
:10439000DDF99DF8140024213A4600EB40002DF091
:1043A0002EF8C0B907AFFF21102238462BF008FFC6
:1043B00088B99DF81400252107F1100200EB400098
:1043C00001EB400004212BF03FF908F001012846E1
:1043D0003A4622F03FFC99F817109DF81400224647
:1043E00000F5A67089002BF02FF9002872D099F8FB
:1043F000180040B95FEA887005D5DFF8B00401788D
:10440000284623F0B3FA9DF814001DF065FF2046FE
:104410002DF080FB002E5BD0DFF89404C0780228DA
:1044200056D128462DF096FA52E005212AF0C4F81C
:1044300019E26089012101262AF0BEF814E2A07970
:10444000C00706D10025B4E16979A08804F108020B
:1044500007E205A8002108222CF078F9A08824F0B2
:10446000A9FA002871D067698146AFB107F111063A
:104470000021062230462BF0A3FE002800F0AF807A
:104480003846002106224FF000082BF099FE002844
:1044900000F08E80C4F8148099F8050009F1060137
:1044A000062200F001008DF81A0005A82CF06EFB22
:1044B000B9E0E07C20B316F079FC0020E0745020D5
:1044C0002AF08AFA20F0FAFC02E004202BF064FCC7
:1044D0000026C9E1204629F0B1FC99F81700002711
:1044E0008742BFF484AF34F8271039B104EB87005A
:1044F000827828462AF0D0FD99F817000137EFE7B7
:10450000607D002500268642D9D2616A895D012935
:1045100005D1F0B20EF0BEF8606A8555607D0136B7
:10452000F1E79DF81C0029F02CFFFF2800F0968190
:10453000024670072FD472BBAB7C01209DF81C1083
:10454000009020461EF0BBF88DE12AF0D5FF002830
:104550007AD0D6480421007814F028F974E040F2AB
:1045600009400021002204F0F9FCA088052123F075
:10457000B9F902E0A08823F06FFBCD48C06A00289B
:1045800000F071814368002B00F06D816278A08893
:104590000221984767E106F00C000C2800F05981D1
:1045A000082800F051810428C6D1D007C4D155E1B4
:1045B000387C002500F001070135304639460022DD
:1045C00000233570CDF800802CF070FB00284FEAF6
:1045D000056001D10028EFD100283FF45BAF666988
:1045E0000EB3307C06F111080622414600F00100AE
:1045F0008DF81A0005A82CF0C9FA99F8050009F100
:104600000607012805D109F10C00394606222CF0D5
:10461000BDFA3846414606222CF0B8FA307C40F00C
:10462000020089F8050099F80420A179022000EA27
:10463000510002F0FD020907104454BF00F0DF00F2
:1046400040F0200089F80400A0799DF81B2000F0BC
:104650000801C0F380001143084361698DF81B0015
:1046600021B30DF11C08102240462CF08FFA404671
:1046700010212AF093FBDFF83C928F4D0027002693
:1046800099F80000864211D22968CA5DFF2A0AD033
:10469000C819102200F10D0140462AF0B9FF012887
:1046A00006D099F800001E370136EBE7FF2600E040
:1046B000F6B200259DF81A100DF133020023009583
:1046C00005A82CF0F3FAFF2E1DD034281BD1784812
:1046D000007D01285FD0B0B97749C6EB06100022F3
:1046E0000023096801EB400010F8011B00920DF156
:1046F00033022CF0DBFA30B99DF833000DF0CAFF1D
:10470000002800F0B5809DF81A10009505A80DF15D
:10471000330200232CF0CAFA20B124F0E9FF8DF80F
:10472000330019E061699DF83300A9B100EB400046
:10473000232107AA2CF063FE60B907A8FF211022ED
:104740002BF03EFD30B99DF81A0005A900F00100DC
:104750002AF0CAFA9DF833005549497D884218D29B
:10476000D4E90221D4E9043500270E69CDE90051CE
:10477000CDE9026705A90EF01BF8C0B30546A08875
:1047800019F094FB9DF833000DF084FF20F096FBA8
:1047900006E0152504E0A088052123F0A3F80125F3
:1047A000A08824F0C3FF60780B2802D1A08823F0F2
:1047B00053FA3F4EF06A80B1436873B16278A088C3
:1047C00001219847607840B9A079C00705D0F16A07
:1047D000A0882A464B68032198472AF08DFE0028BE
:1047E00041D032480421007813F0E0FF3BE02CF088
:1047F000FBFB0546A08824F0DDF8BDB1B0B1407CDC
:1048000000F0C000402811D09DF81A0005AA00F061
:104810000101284617F02EFCFF2807D09DF81A004A
:1048200005A9012200F001002AF08BFAA08819F0F6
:104830003DFB1F49A088897D11B124F077FF01E07D
:1048400021F036FE0025AEE712F0090F7FF474AEBA
:1048500004E0D00702D010073FF56EAE697920461C
:10486000002216F059FD012630460DB0BDE8F08358
:1048700020F024FB24F03CFFD4E902210025D4E9F8
:1048800004368DF8330009B10F6900E00027CDE947
:104890000061CDE9027505A90DF08AFF0546A088E3
:1048A00019F004FB002D7FF46DAFC2E744370120FF
:1048B000D03F0120743701201C370120E9FE02009F
:1048C0002DE9F04F8FB08146087818B94D780F4622
:1048D000012D04D1062528460FB0BDE8F08FBE7823
:1048E00090461D2E01D01B2E1BD1DFF8C0B59BF8C2
:1048F0000000FF28EED01D2E22D1484627F046F8B2
:10490000F0B1827A0646E2B150B2002800F1B982D5
:1049100048461D2128F05AFCB07A40F08000B07261
:10492000AFE2484627F032F8002800F0AA8283461A
:10493000012E41D1B988B86803AA2AF0E4FE47E005
:104940000026BB88BA680DF10C0A00202946002415
:10495000CDF800A029F05AFC05460028BBD1FF2065
:104960008DF80B408DF82600DBF8040050B1036889
:1049700043B10DF10B010DF126024846984700287E
:1049800000F07680BB789BF8000049460022CDF805
:1049900000A01FF071FF054600289CD1049810B1BB
:1049A000002088F800000025002E94D0B8781D283B
:1049B00004BF1D20B0728EE79BF80200864255D1DD
:1049C000DBF80430002B51D0B988B86803AA9847A7
:1049D000054600287FF47FAF9BF802000538C1B27E
:1049E000C20142EA5101C9B2092900F272800122D2
:1049F0008A4012F0570F65D0BE784FEA700001254B
:104A0000092800F20D82DFE810F00A00FA006E00BB
:104A10000B0215010B0235010B020B02B500052E2E
:104A200040F002819BF8240004999DF80E302CF090
:104A300047FB012B01EB800200EBC00001EB4000C3
:104A4000A0F11101A0F1120008BFD11E097808BF22
:104A5000101F007840EA0120BBF80E10884280F059
:104A6000EE812CF05BF92BF00BF823E1042532E703
:104A70009DF80B209DF8261048461EF073FA00287A
:104A80003FF480AF049810B1012088F800003EB1D7
:104A9000B8781D2804D11D20B072484627F006FAC8
:104AA000DBF80400002800F0EC814468002C00F0E2
:104AB000E88148462BF079FB012840F0E281484626
:104AC000A047DEE1092904D1DBF8101000297FF4AA
:104AD00093AFDFF8E0139BF809000978884240F0B3
:104AE000ED800025F9E0092E40F009819BF82400B3
:104AF000BDF80C10049C9BF80C2001304B1E8BF869
:104B00002400BDF80E0043439BB2012AE35A40F053
:104B10006281414300240BF1130501938FB2002100
:104B2000ADF80C405FFA81FABA4580F04B810499E8
:104B3000053883B2284651444A1D9BF812101FF0D5
:104B4000EFFD90B1A0B2824506D00499BDF80E20C9
:104B5000084451442CF01AF8BDF80C000130ADF8AF
:104B60000C00BDF80E00044401E0BDF80E000AEB95
:104B70000001D7E79BF80C00012840F0CD80172EEC
:104B800040F0F3809BF81510DBF81000BDF80C30F6
:104B900001EB410130F821209A4240F0E68000EB21
:104BA0008100BDF80E204188914240F0DE8082886D
:104BB000BDF810108A4240F0D880806805992AF02C
:104BC00027FD002800F0D1809BF815009BF81420E9
:104BD0000130C1B28BF81500914280F06381490029
:104BE000DBF8102051FA80F032F8201002EB800040
:104BF000838842888468BBF800000094B0E0072EE8
:104C000012D19BF8240004992CF05AFA01EB800091
:104C1000BBF80E1030F8040C884280F010812CF0A4
:104C20007DF820F061FE45E09DF810000A2800F0B4
:104C3000AD80F5E00D2E40F0A5809BF82400BDF876
:104C40000C4001308BF82400BBF800002AF04EFD28
:104C50000138A04200F3F380BBF80E00BDF80C1041
:104C600008440BF10C01ABF80E00BBF800002AF071
:104C70001FFF1FE0112E40F08E809BF82400BDF82E
:104C80000E102CF01DFA01384843049911FA80F0F7
:104C90004FF6FF714088884200F0D180421C59468F
:104CA00021F80C2F4A88824240F2C980BBF80000EC
:104CB00028F02AFE2CF0ECF91624C1E0BB7803A9F9
:104CC00000222CF063FC054638B9B97803A823F01C
:104CD00029F8002508B188F800509BF80200032845
:104CE00009D1BBF80C00BDF80C10884238BF014652
:104CF000484621F00BF958461AF07DF8EBE59DF88F
:104D00001000062801D00A285ED19BF82400002854
:104D100040F0818001205AE0172E26D1BBF8000018
:104D20002AF0E4FC421FBBF81C00BBF814508418A6
:104D3000BBF81200ABF81C40201A83B2AB4280F0E3
:104D4000A280DBF81810EB1A934211FA80F7BBF837
:104D50001010BBF800000097B8BF1A4693B2A2B279
:104D600021F078FE002800F09A8000208DF82600BF
:104D70000DF12601BBF800002AF076FE012E14D1B9
:104D800001201BE09DF81000072849D19BF8240062
:104D9000002840D144E09DF810000A2840D19BF83B
:104DA0002400B0FA80F0450936E02CF071F9404853
:104DB000CBF8040019208BF80200162001250128E9
:104DC0002ED05CE0019B06E09BF824000130BDF88A
:104DD0000E308BF82400581E4FF6FD7188421AD809
:104DE000BBF81000834216D29BF80C20591CABF87C
:104DF0000E10012A49D12822ADF82610ADF828005E
:104E00000DF126018DF82C2040F20232ADF82A2057
:104E1000BBF800003DE00025012E08BF002D08D0A2
:104E2000092E04D1BDF80C0008B92C4610E02C4620
:104E300006E09DF810000A2801D1012514E00024A5
:104E40009BF8090003A9002233462CF09FFB08B110
:104E5000012506E003A8314622F064FFB0FA80F095
:104E60004509162C0BD03CB99BF802309BF8090081
:104E700000211A222CF08AFB584619F0BCFF88F852
:104E80000050002527E5012070E7BBF800000BF17A
:104E90000E0128F04BFD2CF0FBF81625C0E72CF096
:104EA000F7F88AE79BF8160060E700BF0848012082
:104EB000231303005B3701202DE9FE4F002800F08B
:104EC00032820446BC30DFF8B4554FF0010902903D
:104ED00004F5B37004F1B40704F1D00604F1A4089A
:104EE00004F1E00B04F20D1A019094F881000028FF
:104EF00000F08A8294F87710A1F12D000D2840F27D
:104F00001682881E282840D8DFE810F01E024800CC
:104F10002900F100C700090148009900480011016B
:104F20003F019000B5001E0174005301710148005B
:104F3000600048004B00A7004800480048004800B7
:104F40001A0248004800480048004800480016027D
:104F50001602160248004800480048001A022CF0C9
:104F600005FB40F02A82E87A002800F0F581002055
:104F7000F121F42284F86C00204619F01BF8A07986
:104F8000029A394623F036FBAFE7F22900F035816B
:104F9000F12900F03982F32900F01E822CF0A2FBE7
:104FA000A3E72CF0E3FA40F0DF8194F8BC0141065E
:104FB0005CD4C10740F0AB81810740F13F8200F033
:104FC000BC00A17984F8BC011A20A7E12CF0CEFA2C
:104FD00040F0CD8194F8B001810600F13C81810759
:104FE00040F1BA81002100F0DD0084F88A1184F8D4
:104FF000B00169E12CF0BAFA40F0D38194F869016C
:10500000012840F05D8194F88401A9463D46374669
:105010000F2801D02CF066FB29F080F92CF06EFBF4
:105020003E462F464D464FF001095EE72CF09EFAB2
:1050300040F0A381E87A002840F0CB80D5E02CF046
:1050400095FA40F0BD81E87A002800F085810220C1
:1050500084F80401608CE08319E02CF087FA40F0BA
:10506000A68194F8BC01410640F1768100F0BF00B2
:1050700084F8BC0128E12CF079FA40F0818194F8A1
:105080000401032800F02381022840F0CE81A17999
:105090000020524624F04CF916E12CF067FA40F05B
:1050A0008381E87A002800F05781608CE0832CF03F
:1050B00025FB2CF0C2F994F8FC0094F8051184F853
:1050C0006C9001284FEAC16040F00A81002809D5A0
:1050D000D4F86011002084F8650194F8660149084D
:1050E0001FF092F9A079002125F0E0FC07E12CF0F7
:1050F0003DFA40F08A80E87A48B1A0790121012286
:1051000084F89A902CF0A8FB0020C4E93D0094F8A4
:10511000FE00012840F020812046062111E02046B3
:10512000072106F00FFB012800F0CE806CE12CF087
:105130001DFA7CD194F8FF00012840F00D81204633
:10514000F1212CF0DEFAD0E62CF010FA40F032819A
:1051500094F86901012840F09E8094F88401D946B2
:10516000C346B8465746B2460F2801D02CF0BAFACB
:1051700029F0D4F82CF0C2FAC04D5646BA4647463C
:10518000D846CB464FF00109AFE62CF0EFF940F0DE
:10519000FF8094F81501012840F0158194F816015C
:1051A000012840F091802BF0A4FA002021F0BAFEF3
:1051B0008AE02CF0DBF940F0DD80E87AA8B194F8C1
:1051C00084010B2808D809FA00F040F6784108421B
:1051D00002D0002084F89A00A079012100222CF04E
:1051E0003BFB2CF02AF984F86C90A87A6AE02CF04A
:1051F000BDF940F0D380E87A64E094F88610204648
:105200002CF07FFA84F876906FE694F8F00001288D
:1052100000F0FE8094F8F100002800F0F580584678
:105220004146324620F048FA84F8F0905DE6204688
:105230000B2106F087FA012840F0E68000200121CA
:10524000002284F89A0084F8FF00A0792CF004FB77
:1052500084F8769049E600F0DF0184F8B011010788
:1052600015D500F0D700AC463D463746B4F89E3120
:10527000B4F8A021B4F89C11B4F8A26184F8B0018C
:10528000A07900963E462F46654620F06FFF00202D
:1052900084F88A0118E094F86801012810D1B4F864
:1052A00094200020B4F89230A17984F86801B4F811
:1052B00090001209009242081A2020F031FF03E00A
:1052C00094F88800002847D02CF018FA0DE6A17950
:1052D0001A20524624F02CF8002084F80401F3E749
:1052E000002807D5D4F86001019B21464208644894
:1052F0002BF0D0FFA0790021012225F0BDFB00207A
:1053000084F8000184F8FC00A4F8FE00EDE500F04C
:10531000BE00A17984F8BC0194F885010022002325
:105320001CF0ACFAD0E72CF0DDF901256DE0204649
:105330002CF04EFB054668E020462CF0E1FAF9E738
:1053400020462CF0BFFAF5E72CF010F956D1A87AD8
:1053500010B12046162104E02BF0CBFC54D120469E
:10536000222127F0BFFFE0E72046162148E0204633
:10537000142145E02046112142E020460D213FE066
:1053800020460E2106F0DEF9012184F8041139E0EF
:1053900001200C2184F81701204631E0204612211B
:1053A0002EE0204610212BE02046062128E0204652
:1053B000172125E020460F2122E0204604211FE08E
:1053C000204609211CE02BF094FC1DD12BF091F913
:1053D000222021F0A7FDC2E794F88610A1F10C006D
:1053E000082846D8DFE800F0054505344545454521
:1053F000050020462CF085F9012003E0204602211B
:1054000006F0A0F984F8760000252846BDE8FE8F56
:105410002046052106F096F900250128F5D1012046
:1054200084F8FE5084F87600EFE72BF062FCEBD1B5
:10543000A1792220524623F07BFF90E72BF059FC04
:10544000E2D1A1792220002200231CF017FA86E77E
:105450002046F1212CF055F9B4F87031B4F86E21E2
:10546000B4F86C11A079B4F8724100941DF06AFB95
:10547000CAE7002000252AF08FFCC6E7D8330120B8
:10548000B9D301002DE9F04F95B007680446B86A1A
:1054900001303FD000203882387F022801D0012817
:1054A0003BD1B86950F8045FBDB3DFF818152CF094
:1054B00001F900283FD0DFF810152CF0FBF8002888
:1054C0004BD0DFF808152CF0F5F800285BD0DFF89A
:1054D00000152CF0EFF800285AD0DFF8F8142CF063
:1054E000E9F800285CD0DFF8F0142CF0E3F800288D
:1054F0005CD0DFF8E8142CF0DDF800285CD0DFF891
:10550000E0142CF0D7F8002800F0C780787C20B198
:10551000F98959E06FF01F05F9E1387B411E072931
:105520002CD8DFE801F01F040E25040E4B224FF4A7
:105530008071022808E00120E0217874F981387335
:1055400042E04FF4C0710328F98102D10120787440
:105550003AE040F20120388235E001204FF48071BA
:10556000022219E00120E02105E00320FF2102E0F2
:10557000012040F209217874F98125E000206FF0C4
:1055800020057874C3E101204FF4C071032203E0C9
:10559000012040F2092104227874F9813A7313E062
:1055A00005204FF480713873CF480AE006204FF48D
:1055B000C0713873CD4804E007203873CC484FF4ED
:1055C0000071C7F80E00022007F13C0207F140030A
:1055D00013F030F8002800F0988139680B78022B1E
:1055E00018BF282B27D178683A7F0578012A45F023
:1055F000200502D1242D08D022E0222D20D1BD6823
:105600002D7845F02005242D20D11B074FF00403F1
:1056100058BF0823CB58F9890731B3EBD10F12D10A
:10562000B97F5D00A9B13E7B8168082E1ED19942E9
:1056300019461ED025E0222BD5D06FF0210566E15A
:105640006FF0220563E16FF0240560E16FF0230540
:105650005DE181686E1CB14213D1022A14D1406809
:105660000078042807D06FF0280550E1B1EB430F14
:1056700007D1022A08D1B86882689A4209D119462E
:1056800014E06FF0250542E1012A0FD0B868816867
:105690000CE0AA4205D1294608E00320FF21082298
:1056A0007AE745F001018A4240F0358140682BF0ED
:1056B00085FF07F1440090212BF080FF386A2146D6
:1056C00024F0DCFB002800F0DD80386A2AF038FA8C
:1056D000002800F0D580D4F80090D9F8000090F8A8
:1056E00000A0BAF1280F40F0D08025F097FE4FF4CB
:1056F0008041D9F8000009F12C0648220191B949EE
:105700003346009103A912F03FF80546D9F820006E
:105710002AF016FA002800F0D680002D40F0D7803D
:105720003068002800F01681002089F8D40026682F
:10573000B0480425317B00F5001008291CBF44F255
:105740000100C0F2210008390A4618BF0122F3897E
:1057500018BF00211F335B0905EB830303FA02F234
:1057600028F07AFFA4492BF0FDFE002840F0A88025
:105770001AF002FC002840F0A380B56A002D40F02A
:10578000A680307F022834D12668902106F1440596
:10579000B6F80E8028462BF011FF706896F80CA022
:1057A0000122B17F337C4068BAF1080FCDE90015C2
:1057B000414618BF02221AF07DF808F11F000421AB
:1057C000400901EB8000BAF1080118BF0121326BDA
:1057D00000FA01F1284627F0C9FA85492BF0C2FEEC
:1057E00000286DD11AF0C8FB002869D1B56A002DD8
:1057F0006DD125F071F818B999F81C00022821D153
:1058000025686FF00301E8891F3001EAD002287F84
:10581000012806D1287B083818BF0120111D01FA84
:1058200000F240F20140002128F016FF73492BF0EE
:1058300099FE002844D11AF09FFB002840D1AD6AA0
:10584000002D44D125686E4800212A6C28F004FF01
:105850006C492BF087FE98BB1AF08EFB80BBAD6ABB
:10586000ADBB2568D5E90E20296C27F07FFA664983
:105870002BF078FE20BB1AF07FFB08BBAD6A26E058
:1058800029F096FC6FF0010541E046684D46297B02
:10589000554808294FF0000108BF00F5001008BF67
:1058A0000021EA8904231F32520903EB820228F007
:1058B000D3FE4E492BF056FE10B91AF05DFB68B3CB
:1058C0004FF0FF3503E029F073FC6FF0010525F080
:1058D00003F800B915B125F0A1FDC5B9387B08283A
:1058E00008D1002513E000BF000101028001010280
:1058F000000201022568284620F0A0FB43492BF056
:1059000031FE10B91AF038FB38B34FF0FF35284696
:1059100015B0BDE8F08F6FF02605F8E7AD6A002DF1
:10592000D5D125680120042189F8D400B5F80EB03E
:105930000BF11F00400901EB8008BAF1280F0ED1CE
:10594000287B082828D1307900F0F800307106F162
:1059500023001DE0256803AE99E7AD6AD7E705F19E
:105960004406414630462BF029FE2868AB7F2A7C4E
:1059700059464068009627F0D1F9287B08280BD1BA
:1059800095F8480000F0F80085F8480005F1670038
:10599000017841F040010170EA6A3046414627F043
:1059A000E5F913492BF0DEFD00287FF489AF1AF0EA
:1059B000E3FA00287FF484AFAD6A002D7FF487AF4F
:1059C000B5E600BF34640300586403007C64030040
:1059D000A0640300A4630300C8630300EC63030036
:1059E00010640300000002090148210417EC0200C2
:1059F0008D0003000140210071EC020053EC020015
:105A000001440F0035EC020077000300A3000300FF
:105A10002DE9F04F8BB045881C4691468A460746D3
:105A2000E5B9388844F2411220F44051914201D145
:105A3000FF2513E02BF0F7FC05D0B0F5E04F40F068
:105A4000C980E50005E06FF0030000EB840020F062
:105A50000405B5F5047F08BF40F2092500260121A1
:105A6000F868DDE916C8DDE914E34FF0000B00F03B
:105A7000FE42B2F1106F29D0B2F1E06F19D0B2F14D
:105A8000C06F40F03381002144F20102C8E90021D7
:105A9000398821F44053934263D1414600220023C8
:105AA0007446E1460EF0A0FB002800F09780064601
:105AB00057E1D34A002102F58032C8E90021D14ADA
:105AC00090422CD1D048C8E9000135E0CC4AC8E961
:105AD000002BCE4A1040B0F5003F40F007813888D7
:105AE00000F4E042B2F5804F00F09480B2F5E04F50
