:10000000008802208BC00200E3CF0200E3CF020091
:10001000E3CF0200E3CF0200E3CF0200E3CF020010
:10002000E3CF0200E3CF0200E3CF0200E19702003A
:10003000E3CF0200E3CF0200C1E8010029980200EB
:10004000E3CF0200E3CF0200E3CF0200E3CF0200E0
:10005000E3CF0200E3CF0200E3CF0200E3CF0200D0
:10006000E3CF0200E3CF0200E3CF0200E3CF0200C0
:10007000E3CF0200E3CF0200E3CF0200E3CF0200B0
:10008000E3CF0200E3CF0200E3CF0200E3CF0200A0
:10009000E3CF0200E3CF0200E3CF0200E3CF020090
:1000A000E3CF0200E3CF0200E3CF0200E3CF020080
:1000B000E3CF0200E3CF0200E3CF0200E3CF020070
:0C00C000E3CF0200E3CF0200E3CF020018
:1000E0002DE9F04F85B0834690460C46500406D467
:1000F0009BF805704FF0000A00260025DAE0A146C3
:1001000023F0E8FC82462CF035FFDFF8D04A9BF85C
:100110003050142104F1200084F84C502CF078FE6B
:1001200005F00100C5F3400100260844C5F3800135
:10013000A4F8356084F83760C74D0844C74984F88F
:100140003400C748AFF30080AFF30080AFF3008006
:10015000AFF30080C0F81014C248AFF30080AFF3D3
:100160000080AFF30080AFF300806861BE48AFF35A
:100170000080AFF30080AFF30080AFF30080008811
:10018000E081AFF30080AFF30080AFF30080AFF306
:100190000080E08928F09EFCA8811020AFF3008049
:1001A000AFF30080AFF30080AFF3008084F84860C5
:1001B0002E836071DFF8AC0CC0780F281CBF9BF851
:1001C000320010F0010009D029F02EFA4FF400108F
:1001D0002AF080FD4FF4001027F078F984F8516080
:1001E000A4F84F60BBF8020029F0C0FA032858D1E8
:1001F0001AF096FF2081DBF83C002E460025656151
:100200002CF09DFE1EF090FF6081AFF30080AFF3F5
:100210000080AFF30080AFF30080DBF83C00008B80
:100220007086AFF30080AFF30080AFF30080AFF3D0
:100230000080DBF83C00408BB086AFF30080AFF36A
:100240000080AFF30080AFF30080DBF83C00808BD0
:10025000F086AFF30080AFF30080AFF30080AFF320
:100260000080DBF83C0090F82410C1F34001B18518
:100270008068002800F0CF81817B0144C97B01F0B8
:100280000F01072909D8DFE811F0C2018701080032
:10029000080008000800C8015B02002584F84D50E2
:1002A000B9E1074600250F2F8BF805704C4688BF33
:1002B00045F00205032F63D114F4D87F0396CDF8DF
:1002C00000A062D04046DFF81499CDF810B028F4B1
:1002D000803B4FEAC4580294064601906348AFF34E
:1002E0000080AFF30080AFF30080AFF300800068C0
:1002F00004285BD30020B2461BF064FB052111FAF1
:1003000080F4D9F8140024F00307394623F0F0FEF6
:100310000646D9F8140086421CBFC9F8146045F09F
:100320000805A6B3F089A108304400F11004204666
:1003300017F0B4F9B8F1000F13D599F84F0080B158
:10034000606800F47020B0F5403F0AD1204627F0E5
:1003500043FEC00644BF002089F83500012089F81B
:100360005100F08999F8072031183844F081049839
:10037000CA74C06B2CF0E3FD45F004055E46ADE7A2
:10038000A80700F1768400F07ABC464619E0852083
:100390005646012189F805003148AFF30080AFF3DC
:1003A0000080AFF30080AFF30080016099F8060091
:1003B000DDF810B0DDE9018418B1DFF8580C2CF03D
:1003C00056FCDFF84C1CC6F38010C9780F2910D0FA
:1003D000A1020ED5DFF8241C0122AFF30080AFF399
:1003E0000080AFF30080AFF3008081F848201C4903
:1003F0000A6040EA0509C8F38047F00504D5DFF834
:10040000FC1B012281F84E20E10735D016F4802133
:1004100032D11749AFF30080AFF30080AFF3008013
:10042000AFF30080098889B204292ED11148DFF882
:10043000CC1B4022AFF30080AFF30080AFF300800D
:10044000AFF3008000684A718969401ACBF8380020
:10045000032000BF00BF64E030200940D6BE898E73
:10046000301008400055555534200940CC11084043
:10047000062009409820094020045FD5DFF87C0B56
:1004800090F84810B1B3182044E0B2052BD4DFF83F
:100490006C5B002841D407293FD095F84E00002816
:1004A0003BD1022903D195F83500002839D195F8C0
:1004B0004C00002800F06982C0480521AFF300809D
:1004C000AFF30080AFF30080AFF30080C0F870118D
:1004D000A87918B1DFF83C0B2CF0C9FB14F09AFC9A
:1004E0000120002729E0032029F084FEDFF80C1BFF
:1004F000487116E0407910280CD1B148AFF3008064
:10050000AFF30080AFF30080AFF30080008880B2CB
:1005100027F0D0F98BF805000BE0022029F06AFEE5
:100520006871DFF8D80A40798BF80500032000BF16
:1005300000BF49F00209002700200390F00305D511
:10054000DBF83C002CF0FBFC26F4803603980028F6
:1005500000F0E982DFF8A45A049795F94C80B8F1CD
:10056000000F17D49BF8330008F00701052888BF57
:1005700000200239052900F22781C207DFE811F0C7
:100580000600110109010D010301190134464FF064
:1005900026081CE134461AE1AFF30080AFF3008077
:1005A000AFF30080AFF30080DBF83C008549032700
:1005B0000525C08BA1F84400AFF30080AFF30080A5
:1005C000AFF30080AFF30080DBF83C00008CA1F8B3
:1005D0004600AFF30080AFF30080AFF30080AFF3CD
:1005E0000080DBF83C00408CA1F84800AFF30080AD
:1005F000AFF30080AFF30080AFF30080DBF83C0086
:1006000090F8240000F001000886012008E0012095
:10061000032584F84D00032704E001200327022569
:1006200084F84D0094F84F0058B100202246012173
:1006300042F8380FC2F80A0010725060DBF83C0034
:1006400003E0DBF83C0002210022083000230EF01A
:10065000D3FA002859D0013805F0020118BF012053
:10066000012282EA510141EA0006012E52D1554B86
:100670000020AFF30080AFF30080AFF30080AFF352
:1006800000800422A3F86E50AFF30080AFF3008027
:10069000AFF30080AFF30080D883AFF30080AFF3F7
:1006A0000080AFF30080AFF30080DBF83C1091F8DE
:1006B000251001F003015985AFF30080AFF30080EE
:1006C000AFF30080AFF30080DBF83C1091F8251009
:1006D00002EA51011980AFF30080AFF30080AFF35D
:1006E0000080AFF300802CF0A4FAC2F300125A800D
:1006F000AA0711D4AFF30080AFF30080AFF30080FE
:10070000AFF30080A3F87A00CDE0832002258BF8B8
:100710000500AEE28327FCE091F825204868D10768
:1007200040F0AF80510747F6F573AFF30080AFF3A9
:100730000080AFF30080AFF300802BF067FCABE0EC
:100740000121002584F84F1084F84D50817B01442D
:10075000497C890600F01781002112F035FD94F8DC
:10076000350000283FF457AFBBF8021094F823007F
:1007700001F00301B1EB501F1CBF012084F85000B1
:10078000032700254EE71321344661F35F008046BE
:100790001DE034464FF0270819E034464FF0270893
:1007A00002E034464FF02608002A08BF4FF0250823
:1007B0000DE02521344601EB500808E030100840D8
:1007C000062009403020094034464FF02508A98909
:1007D00095F8200026F04AF95FFA88FA0746504655
:1007E0001CF044FE49F0020530B106469BF831008A
:1007F00031460AF08BFA20B18220049F8BF8050065
:1008000092E13046012104F093FE15F059FD600499
:1008100009D49BF83400002800F0918041F2883020
:100820002BF0E8FAE4E00099584620F077FC044603
:100830000F2800F2A680DFF8C46796F84F0068B171
:1008400096F8350050B196F84C1096F8502038467E
:1008500012F028FD002808BF6FF07D04DFF8B477A0
:10086000DBF84000396910F047FDB07197F82000BF
:10087000002186F84E10800700F0BB8026F03EFE77
:10088000B7E0D049AFF30080AFF30080AFF3008052
:10089000AFF3008000220131CB4BA3F87A1003F1B3
:1008A000900121F003F9E8070CD1C7490020AFF30C
:1008B0000080AFF30080AFF30080AFF30080A1F8B9
:1008C0007E0026E0DBF83C10BF4D91F8252008683B
:1008D00091070DD4510747F6F573AFF30080AFF3DE
:1008E0000080AFF30080AFF300802BF08FFB0AE0B5
:1008F000B449AFF30080AFF30080AFF30080AFF3F3
:10090000008000220131A5F87E1005F5887121F0E4
:10091000CDF894F84F0000283FF4C4AC2CF084F9D3
:1009200048B102210172A16B884201D10020A0636D
:100930001025FFF7B8BC84206071FFF7B3BCDFF867
:10094000BC6696F84F00002850D096F83500002875
:100950004CD01D201E2100EB9700B0FBF1F04FF4AE
:10096000A561C0EB001001EBC0002BF043FA96F834
:100970004C1096F850200446384612F093FCC0BB49
:100980008224049F39E084274CE695F8350000283E
:100990003FF4C7AD95F82300B5F8211041EA0040B7
:1009A0008A49084080287FF4BCAD89480721AFF30D
:1009B0000080AFF30080AFF30080AFF30080C0F899
:1009C000701114F027FA95F85000002800F01183F8
:1009D000BBF8021095F8230049F4004901F0040126
:1009E00041EA5010DFF82C168885A5E52CF067F950
:1009F0000446E0B2049F102802D38BF8054093E030
:100A00000020714A4FFA88F4AFF30080AFF3008002
:100A1000AFF30080AFF30080DFF8E055BAF1400F8C
:100A2000A2F88A0038BF48F04000002C924648BF28
:100A300008F07F00AFF30080AFF30080AFF30080D9
:100A4000AFF30080C1B25181614A297961B1614936
:100A5000AFF30080AFF30080AFF30080AFF300800E
:100A600081EA0060C2F8100495F84D00C0B122F090
:100A7000CBFB5948302148F23112AFF30080AFF37D
:100A80000080AFF30080AFF30080008801EA00111E
:100A9000AB7948F2B110002B08BF81EA020001E0F7
:100AA00048F2010026F012FD0126AFF30080AFF3FB
:100AB0000080AFF30080AFF3008000210025AAF88A
:100AC0008C609BF832001DF09DFA29F033FB022068
:100AD00000BF00BF05203E49AFF30080AFF30080A8
:100AE000AFF30080AFF30080B4F1FF3F086016DD84
:100AF000DFF808256FF0240050FA88F092F84C10C7
:100B000006FA00F021EA000082F84C009BF834104D
:100B100049B140B99BF8300082F84C0003E0DFF89F
:100B2000DC0480F84C504D46002F00F09C80DFF82C
:100B3000CCA4BAF8210000F03F0948461CF096FC0E
:100B400030B104469BF8310021460AF0DFF808B1C5
:100B5000822084E02046012104F0EAFC15F0B0FB7D
:100B6000DBF83C0086683EB3BAF80C109AF8200017
:100B70009AF8504025F07AFF80464CB1DFF8940493
:100B8000808D28F0F3FD002008F5F0788AF85000F9
:100B9000B07B3044C17B01F00F0107290FD1447CA9
:100BA0003046002112F010FBA00902282BD00128AA
:100BB00016D0B0BB002037E04FF0000836E08220AE
:100BC0002AE000BF0A80FFFF3020094080FF1F009D
:100BD00030100840D6BE898E3420094008270120F5
:100BE0009AF83500A0B901208AF84D003068A8B302
:100BF000DBF83C000AF1380202212CF056F80746D7
:100C0000012201231CE09AF83500002800F08881B9
:100C100000208AF84D0084208BF8050045F002057D
:100C200004E000208AF835008AF84D00DBF83C002B
:100C30000AF1380201212CF038F80746002200237F
:100C400067B1781EB0FA80F04009064206D1781EDE
:100C500082F0010118BF0120084314D183208BF8D2
:100C6000050045F00205A80709D5DFF8A8032BF019
:100C7000FEFF14F0CFF826F081FB2AF044FA284654
:100C800005B0BDE8F08F08F5A5601D21CDE9023261
:100C9000049501EB90001E21B0FBF1F09AF8511081
:100CA000C0EB0010B1B1BAF80C404FEAC0089AF896
:100CB0005300214625F0DAFE05460C20214625F09A
:100CC000D5FE00218AF8511008EB0501084400F513
:100CD000976002E0082101EBC0002BF08BF8804602
:100CE0009AF8350078B1BAF80C109AF8200025F07F
:100CF000BDFE9AF84C109AF8502012F0D3FA002852
:100D000008BF6FF07D08049DAFF30080AFF3008053
:100D1000AFF30080AFF30080BB4C0298A4F86E00E4
:100D20000420AFF30080AFF30080AFF30080AFF397
:100D30000080E083AFF30080AFF30080AFF300806A
:100D4000AFF30080DBF83C1091F8251001F00301AF
:100D50006185AFF30080AFF30080AFF30080AFF3A5
:100D60000080DBF83C1091F8251000EA510020804B
:100D7000AFF30080AFF30080AFF30080AFF30080EB
:100D8000DBF83C0090F82500C0F3001060809AF872
:100D90004900AFF30080AFF30080AFF30080AFF302
:100DA0000080618821F0040141EA80006080BEB1CA
:100DB0002BF03FFF4868D10748F20A011CD15307C6
:100DC00002F00402AFF30080AFF30080AFF30080C5
:100DD000AFF3008000EAE37001EAE371520015E02E
:100DE0000020AFF30080AFF30080AFF30080AFF3DB
:100DF0000080A4F87A000FE0AFF30080AFF300802A
:100E0000AFF30080AFF3008001310022A4F87A1024
:100E100004F1900120F04AFE0398B8B12BF009FFCD
:100E20000868910748F20A011ED4530702F0040231
:100E3000AFF30080AFF30080AFF30080AFF300802A
:100E400000EAE37001EAE371520017E00020AFF31B
:100E50000080AFF30080AFF30080AFF30080A4F810
:100E60007E0011E0202A0300AFF30080AFF3008082
:100E7000AFF30080AFF3008001310022A4F87E10B0
:100E800004F5887120F012FE5FFA88F0102802D372
:100E90008BF80580E5E60020AFF30080AFF300801B
:100EA000AFF30080AFF30080554EA4F88A0009F13B
:100EB0004000AFF30080AFF30080AFF30080AFF3EA
:100EC000008060819AF8041061B14E49AFF3008050
:100ED000AFF30080AFF30080AFF3008081EA0060E1
:100EE000C6F810049AF84D0000284BD022F08CF977
:100EF0004648302148F23112AFF30080AFF3008052
:100F0000AFF30080AFF30080008801EA00119AF887
:100F1000063048F2B110002B08BF81EA020033E02E
:100F200001208AF84D003468002C3FF497AEA07B76
:100F30002044C17B01F00F0107290BD1407C3F28E1
:100F400008D8B07B3044007C0B3000F0FC01204618
:100F500012F03AF9DBF83C000AF1380202210023D2
:100F600008300DF049FE0746A07B022300222044F2
:100F7000007C8AF85200B07B30440126007C8AF85D
:100F800053005DE648F2010026F0A0FA29F0D2F8FD
:100F90000120AFF30080AFF30080AFF30080AFF328
:100FA000008000214FF00008A4F88C009BF832006C
:100FB0001DF028F80520AFF30080AFF30080AFF3F9
:100FC0000080AFF300808424306002262BF02CFEDA
:100FD00040B10672DAF83810884208BFCAF8388083
:100FE000013F01E08AF80540002FEFD145F01005E0
:100FF00039E600200127FFF7A0BA00BF082701202B
:1010000030100840D6BE898E302009403420094077
:10101000202A0300A42D0120B1F1FF3FC4BF00200E
:1010200070472DE9F04F8BB0DFF8E8790D4638783E
:101030001BF078FE002800F0A88482460078A228E1
:1010400051D0B02840F09E84DFF8D8690020ADF878
:101050002600706838B92BF0EDFB2CF05DF9002804
:10106000706000F0898407F11408002118220695A9
:1010700040462AF0E6FF9AF804104FF00109881E56
:10108000162800F2728401310591DFE810F0170094
:101090006E046E046E04CB006E046C006E04CC0112
:1010A0006E04FB016E0474006E0440016E04BD0109
:1010B0006E046E046E046E026E042E022BF0BAFBF8
:1010C0002BF054FC28F046FF002800F01283BAF8F9
:1010D0000800B98A4FF00109884238BF0146032051
:1010E000B98200F031BC9AF8050065282DD107F1CE
:1010F0000C0420462CF00CF9C0B10646817A008918
:1011000006F10C08424612F0CBFB0746142800D02B
:1011100067B9204631462AF051FB142F03D1B17A2A
:1011200040462AF022FF30462CF0FAF820462BF0F9
:10113000DAFD50B1DFF8E40800210170DFF8D808CB
:10114000DFF8DC180078087002E0DFF8CC080078DF
:10115000FF2800F01784514628F0A9FE002840F02F
:10116000118400F012BC0DF12602504600210DF052
:1011700033F80646D0E32BF0E1FBBA8AA0F1010B6D
:101180000146079007F1020900241FFA8BF008902E
:10119000BAF80C108C4280F0CA8290B2834540F3BA
:1011A000C682DAF808000DF12A0130F8140023F0A5
:1011B00067F9002800F0C38200250146B046736835
:1011C000BAF802009AF80460BDF82A20CDF8009021
:1011D0000195089DCDE9025608F0B2F9002840F0CB
:1011E000B082B86940B9BAF802000F212BF026FD91
:1011F0000028B86100F0D382B98A7A88079D4646F4
:1012000053180844AB4222BFABEB01027A8092B282
:10121000D8F804102BF024F97888B98A01340A1818
:10122000BA82B5E72BF08AFB2BF042F80DF12A02C7
:101230002BF031FD0446F01F711F4FF00008BD1C5C
:1012400080B2089107901FFA88F9002C00F0F18114
:101250000898484540F3ED81DFF8C8079AF8041074
:101260003E46BDF82A20079F4FF0000B4368BAF8AE
:101270000200039121460297CDE9005B374608F052
:101280005FF9E0B9BAF810207888824215D1DFF80A
:1012900094074168DAF8140029F06CFE68B1B86967
:1012A00040B9BAF8020007212BF0C8FC0028B86149
:1012B00000F02B83B4F80AB001E04FF0000BBAF84D
:1012C0000A10BDF82A2020460AAB19F023F904467B
:1012D000BBF1000FB7D0B86908F1010189B200F87D
:1012E00009B04FEA1B20BA69505408F1020081B2DC
:1012F00014B12BF07DF902E0BA69FF20505408F1D7
:101300000302B96908F1040892B288549BE72BF0F4
:1013100015FB2AF0CDFF0DF12A022BF0BCFC044690
:10132000B01F002507F102094FF000081FFA80FBEB
:101330000890002C00F0C081BAF80200BDF82A2005
:1013400021461AF043FE002840F0BE81DFF8D406A3
:101350009AF80410BDF82A204368BAF80200CDE9D3
:1013600002B12146CDE9009508F0EAF8002840F0E6
:10137000AB811FFA88F666B17888F98A021D8A4225
:1013800040F09A8108993044884200F39581B86909
:101390000BE0BAF8020011212BF050FC0028B861D4
:1013A00000F0808279880431F982A17A08F1010283
:1013B00092B28155B869E17A81542046BAF80A1090
:1013C000BDF82A200AAB19F0A5F8044608F102007E
:1013D00081B214B12BF00CF902E0BA69FF2050542D
:1013E00008F10302B96908F1040692B28854DFF8E3
:1013F0003416B8697A88496810FA86F02BF030F80C
:10140000788800EB060894E79AF81000C146022895
:1014100040F019819AF81100012840F01481032648
:101420004FF0000812E1BAF808000DF12A0123F08C
:1014300027F8002800F035810446BAF802000AAB0C
:101440000B214FF6FF7219F0EFFD0028B86100F094
:1014500035819AF80410BDF828600346BAF80200F6
:10146000BDF82A204FF0000CCDE9008CCDE90261D7
:10147000214608F065F880BBBAF80200414627F023
:10148000D1F885E1BAF808000DF12A0122F0F8FF41
:10149000002800F006810446BAF802000AAB0D21CC
:1014A0004FF6FF7219F0C0FD0028B86100F0068108
:1014B000BAF80A100346BAF802009AF804C0BDF858
:1014C0002860BDF82A20CDE900812146CDE9026CD3
:1014D00008F036F8002800F056810646B86916F084
:1014E000F3FB162E40F0DE8055E1CDF81080BAF8FF
:1014F0000280404627F0F2FB002800F06C8286460E
:101500009AF80800012840F0618296F802904FF0A6
:10151000000C4FF0000B0020CDF820E0C6B24E4585
:1015200080F04981DEF8042006EB460432F82430CE
:10153000002B00F04181BCF1000F0DD09C4540F024
:10154000718102EB84028CB253889C4240F06A8124
:1015500092881144934406E002EB84019C46B1F862
:1015600004B0498859440130D8E7BAF80200012193
:1015700028F0A0FE002800F0C9800AF1080B0DF148
:101580002A01BBF8000022F07BFF002800F0E98070
:101590000446007AB146800600F1E780BAF80240BE
:1015A000204627F09BFB38B94FF6FF7027F096FBDB
:1015B000002800F0F280048099F802100C2201EB60
:1015C000410102EB8101002202F10C03994200F07B
:1015D000E4804468A25A002A1A46F5D1E018594618
:1015E0000C220C382AF03CFF404659460C222AF0C7
:1015F00037FFBAF80C20BAF80200172100234FF089
:10160000000919F011FD0028F86100F0F081BAF826
:101610000C20DAF810102AF023FFBAF80200414635
:1016200026F0C4FF064600284FF0000918BF162612
:1016300074E15FEA08406ED04FEA99002BF096F90A
:1016400026F036FA50E000264FF00108BAF80800FC
:101650000DF12A0122F014FFB8F1000F25D0044645
:1016600018B3207AC846800609D5BDF82A002AF0AA
:10167000B7FE002800F014812BF090F90646002EEA
:1016800040F033819AF81140BAF80A30DAF80C20A9
:10169000BAF80810BAF80200002C00F00D815224AC
:1016A0000CE10126BAF808000BE0B8F1000FC846BB
:1016B00000F01A81012618E1002609E0BAF80800B6
:1016C0001126ADF8260027E106466089ADF8260010
:1016D0005FEA084023D0F88A1FFA88F1B1FBF0F0E6
:1016E0002BF044F926F010FA0646002818BF1626FB
:1016F00010E1BAF80800B98A884238BF0146BAF842
:10170000020020F035FD4FF001092EE114200E26D5
:101710008AF8010000E1BAF808000A26F8E0BAF8F1
:101720000800002EADF8260008BF0A26F2E0DDF81A
:101730001080BAF80200414626F060FF50E1012611
:1017400000E00646DAF80800DDF8108030F81400F2
:10175000ADF82600B869002800F0DE8016F0B4FA73
:10176000DAE04FF001090126A1E0BDF82A002AF0D5
:1017700037FE002800F098802BF010F900283FF485
:101780000DAF064691E0BAF80200414626F022FF6E
:1017900008B11626C0E00026BEE0092685E0DAF88A
:1017A0000800DDF810804FF00109112630F8140010
:1017B000ADF82600B5E04846C0B201286AD95FEA14
:1017C0000B402FD01FFA8BF020F088FADDF820E0D4
:1017D00040B3B14505464FF0000838BF4E4606EB12
:1017E00046000026800007900798DEF80440B042CB
:1017F00000F0D0803444A16851B1A28815FA88F075
:101800002AF02EFEA068B4F8049016F05DFAC844E1
:1018100026B1204600210C222AF013FCDDF820E03E
:101820000C36E1E701254FF0000B00267D48691ECC
:101830008078814280F0E180DEF8048038F80B1077
:10184000002900F0DA80854201D1182606E008EB75
:101850000B0016268089002808BF182608EB0B0904
:10186000BAF80200B9F80430D9F80820B9F80240F3
:10187000CDE900461AF00EFFDDF820E0064628B15B
:10188000162E40F0B6800020C9F8080001350BF193
:101890000C0BCBE7DEF80440B4F804B0A5687EE09A
:1018A0000E2622E0608932E00E264FF00109BBF8D7
:1018B0000000ADF8260031E09AF804404FF000092E
:1018C000CDE900941AF0E6FE16281CD0064658B959
:1018D0009AF81100A8B9BAF802002AF049FC4FF0B2
:1018E000010980B1162619E05EB1BAF80800ADF81A
:1018F00026004FF001099AF81100002818BF0026B1
:101900000CE00026F5E70026F5E7BAF808001126F6
:10191000ADF82600DDF810804FF00109B6B1162EA3
:1019200014D09AF80100142810D09AF8040007F88F
:10193000140FBDF826003E7139467880BAF80200CF
:1019400029F02CFD10B10120059001E0162E0CD1DC
:101950000599BAF802004246CCB2214617F062FE61
:1019600018B1404621462AF000FB504623F078FB90
:10197000069DB9F1000F05D09AF804100AF108008D
:101980002AF0F3FA504628F09CFF25F000400BB0F7
:10199000BDE8F08FA4F804B0A560BAF802806088B2
:1019A000218818221FFA8BF3CDE9000240462A460F
:1019B0001AF070FEDDF820E040B10646162814D17A
:1019C0000020A060704620F0CBFE9CE6704620F020
:1019D000C7FEBAF8028040462AF0C2FBDDF810804C
:1019E0004FF001090028B3D1BFE7208803E011269A
:1019F0005DE738F80B00ADF82600704620F0B0FE29
:101A00004FF00109162EB0D0DDF81080002EE0D086
:101A100084E700BFC43C01206E4201202F43012017
:101A20006D420120743B01202DE9F04F8BB00F4631
:101A30000E46044617F8015B2846394628F023FF76
:101A400038B1284621463A460BB0BDE8F04F2BF09E
:101A5000D2BB2A2D40D8DFE815F04C0181011501D9
:101A6000D6013F003F00E6019A01B0011F02EA01E2
:101A7000FD001C013F003F0009013F00E800CF01CD
:101A8000AC0142004200FB013F00C9003F003F00A3
:101A90003F0039003F003F003F003F003F003F0054
:101AA0002B002B002B003F003F003F003F00390080
:101AB000DFF84409407910F0060F0DD02046394672
:101AC0002A460BB0BDE8F04F2BF03EBCDFF82809EA
:101AD0000079800700F1C28084F8215117E3142DAA
:101AE00004D194F86C00002800F08181B6F807005A
:101AF000B6F805C0B6F80320B6F80110152D40F071
:101B0000F6818EB21B231B214FF0FB0E44F290286E
:101B10001B2E88BF3146FB2928BF71461B2E38BFBC
:101B20004FF4A472FB2E88BF44F2902296B21FFAA3
:101B30008CF2B6F5A47F38BF1B21464588BFFB2138
:101B40001B2A88BF1346FB2B28BF73461B2A38BFAE
:101B50004FF4A470FB2A4FF4A47288BF44F2902083
:101B600087B24FF4A470B7F5A47F38BF1B2388BF9A
:101B70003846B6F5A47F88BF324644F291264245E6
:101B800028BF4246B74224BF44F29020FB23A4F86A
:101B90009431B4F88E3187B2A4F89A21A4F8961142
:101BA000A4F89801BB4238BF1F46B7F5296FB94664
:101BB00098BF4FF4296994F8BA01042818BFB946B0
:101BC000B4F8A2810428A4F8A29140F03C822BF042
:101BD000AAF90246B4F8A001A4F8A021131A18BF6C
:101BE000012394F8BA01B4F8961139E27178B0780B
:101BF000814208D111F00700387000F0AF8201393E
:101C0000014200F02283204618211E2221F064FCAC
:101C1000A1791E20002200231CF08CF994F8BC014D
:101C200040F0400084F8BC0176E27178B27820463A
:101C30002BF0D9FA94F87600012840F07C8194F8D2
:101C40007700A0F10F01022980F07282012084F850
:101C5000690161E2012084F8FF005DE22046394617
:101C60002A460BB0BDE8F04F20F0FDBFA0792BF065
:101C70002EFA002800F0658120460F213A2221F03B
:101C80002BFC49E23878012184F81F1184F82001E7
:101C900042E294F81501012811D07078B11C02229B
:101CA00084F8180104F58D702AF0E0F8014604F577
:101CB0008E7002222AF0DAF8012084F8150194F8D7
:101CC0006C00002800F0938094F81701002840F081
:101CD000238294F81601002840F01E8220460C2131
:101CE00007F068FF002800F01A82012084F817012D
:101CF00012E27078B11C04F18E07DFF8046702224B
:101D000084F88C003846B04704F190050146022261
:101D10002846B04704F19208014602224046B047E7
:101D200004F19409014602224846B047014694F85E
:101D30008C0080B12A88531E9BB2082B28BF082331
:101D4000834208D33B88934205D8062A03D3B2F5D1
:101D5000486F40F2F18243F201004AE004F1620070
:101D6000394605222AF082F8014604F19800022241
:101D70002AF07CF82089B4F89810081A47F6FF7109
:101D800080B28842C0F0148142F6010031E0387818
:101D90000E38082800F2C081DFE810F009000302C5
:101DA000BE01BE010B00BE010D02BE0114020320E4
:101DB0001AE0002084F86401AEE12BF01DF894F8DD
:101DC000060100075EBF40F64800A4F88E01A4F8A3
:101DD000920194F86C0050B12046092107F0EAFE08
:101DE000002800F09C81022084F8040194E143F66D
:101DF0000150A4F81F018FE194F80501C00600F11D
:101E0000E180122081E194F80501C00740F0DD80F7
:101E10001A2084F8FD0094F8FC00012840F08F811E
:101E200020460D2109E1012084F8FE0074E194F8B8
:101E30009A00012877D101200B2184F8FC000020B2
:101E400084F86C0084F86700A4F8F000204678E17C
:101E500094F8060110F0090F00F056817078B178FF
:101E6000084000F00700707094F8BD11014084F83C
:101E7000BB1100F06E81481E084200F06D810329FD
:101E800000F2B9810220020600F06681084240F0AB
:101E9000B381C0B24008F6E72AF0AEFF022084F812
:101EA000040194F8060100075EBF40F64800A4F85C
:101EB0008E01A4F89201DFF840054078800640F1D9
:101EC0002B81B4F890011B280ED1B4F88C011B288B
:101ED0000AD1B4F89201B0F5A47F05D1B4F88E010F
:101EE000B0F5A47F00F018812046142129E18BB2BF
:101EF0001B2B18D3FB2B16D893B2B3F5A47F12D3A8
:101F000044F29026B3420ED81FFA8CF31B2B0AD34F
:101F1000FB2B08D883B2B3F5A47F04D344F29126F7
:101F2000B342C0F06582204614211E220BB0BDE8EA
:101F3000F04F21F0D1BA00200BB0BDE8F04F29F0EE
:101F4000C5BB94F80501800740F19F81F068B6F8A1
:101F50000370B6F80550B6F80790B6F80AB096F8D0
:101F600009A008903069099070690A90B6F80100DC
:101F7000079005202AF077FF002800F08181208952
:101F800008A91FFA8BF21FFA89F8AEB2CDE902A2B6
:101F90000491BAB23346CDE900800798069281B227
:101FA000204618F06CF9002800F08F811E2668E1A9
:101FB00001200021E18384F85C0184F8960020462A
:101FC000012113E120461321A3E00120DFF8308432
:101FD0003946082284F80001002084F86C0084F857
:101FE000670004F1B400C047014604F1BC000222BE
:101FF000C04704F1AC05014608222846C047064602
:102000002846082128F098FB04F1A0053146042257
:102010002846C0472846042128F08EFB04F1A4007E
:102020002AF03FFF04F19C002AF038FF94F8FC00EE
:10203000012840F08B8020460421F4220BB0BDE83B
:10204000F04F18F035BCB4F8923192B2934238BFD9
:102050001A46B4F8A031A4F8A021D31A18BF01235E
:10206000B4F890718EB2B74238BF3E46B4F89C11B6
:10207000B9EB0807A4F89C6118BF012747EA0308D9
:10208000771A18BF01272AF0DEFD864202D2B4F883
:102090009C0105E0B4F8A02194F8BA012AF0D3FD20
:1020A000A4F8B201B4F88C01B4F8943148EA0701FD
:1020B000984238BF0346B4F89E21A4F89E31981A7E
:1020C00018BF0120934205D994F8B02142F0800254
:1020D00084F8B0210843142D0DD148B1B4F8A021E3
:1020E000B4F89C11A079B4F8A251009520F070F9D1
:1020F000204615210DE094F8B011002818BF41F0DA
:10210000080141F020005AE0162084F82101204601
:10211000072107F04FFD10B10BB0BDE8F08FB748B5
:102120004FF4804100780BB0BDE8F04F13F028BCAD
:102130001628F1D194F8BC0140F0010072E5204668
:102140000D210BB0BDE8F04F1BF032BA2046042140
:1021500076E094F8BA014FE008464FE094F8770033
:10216000162806D194F8BA21A179002013461BF055
:10217000E1FE002084F8B60194F8BA010121B4F818
:10218000A021B4F89C51012384F8B40184F8BF1154
:1021900094F8BE111FF07AFD854218D2B4F89C0164
:1021A00017E0012084F8680194F8050100F0FD00B3
:1021B00084F80501B0E794F8B00140F0120084F80B
:1021C000B001A9E794F8BC0140F012002AE529F01B
:1021D00002FFA4F8B2010120182184F85C0194F8F0
:1021E000BC0140F0400084F8BC0120460BB0BDE8C3
:1021F000F04F2BF0C3B8042084F8BB01C1B204290E
:1022000005D12AF090FEA4F8A00194F8BB01C0B259
:1022100028F01BFBB4F8A02194F8BE11B4F89C512F
:10222000012384F8B4011FF031FD854202D2B4F8D5
:102230009C0101E029F0CFFEA4F8B201204617214D
:102240000BB0BDE8F04F17F0BFBA84F8BB0122898C
:10225000B6F80310A4F8B811891A47F6FF7289B2CC
:102260009142BFF491AD0121042884F8B6117FF4A6
:1022700085AF2AF058FEA4F8A00194F8BB017DE7D1
:102280001A2694F80501400710D40F20072184F87E
:102290002101204607F08EFC00287FF43DAF57480F
:1022A0004FF48041007813F06BFB35E720460F2197
:1022B000324621F011F9A1791FFA89F0BAB2ABB216
:1022C000009030461FF02AFB26E7079804F5BC7300
:1022D00009990A9AA4F876B184F874A1A4F87291C5
:1022E000A4F87051A4F86E71A4F89490A4F89250D8
:1022F000A4F89070A4F86C01089807C30020069A0F
:10230000A4F88E00022084F88C00A08EC11DA4F8D1
:102310008A10618EB2EB510F08BF864254D094F8F8
:102320007600012838D194F877000F2834D1204660
:10233000F1211BF03DF93AE04000520084F88C0096
:10234000B4F89400A4F890205A00A4F88E20022239
:102350000001A4F8940004F18A0029F087FD208987
:10236000B4F88A10081A47F6FF7180B28842BFF4A9
:102370000BADB8F80010288801314843B9F80010B7
:10238000B1EB400F31D90120002184F85C0184F8C1
:1023900088002046E18329E794F8810018B194F879
:1023A00077001A2819D12046F12117F00DFAB4F858
:1023B0007031B4F86E21B4F86C11A079B4F87241A0
:1023C00000941CF081FEA7E6E08EB8EB101FA6D1AA
:1023D0002046102117F0F8F99EE60F20F32184F82B
:1023E000860020461BF0E4F896E643F6013000E54F
:1023F0006346FFF7CCBB00BF263001206D320120C1
:102400006DBE02002DE9FE4F82461546500445D4AC
:102410000F4611F4F87F00F0C480DFF8504825F42F
:10242000A0394FF0000B02978948AFF30080AFF35B
:102430000080AFF30080AFF3008000680428C0F094
:10244000C1800020A84619F0BDFA052111FA80F5D7
:10245000804805EA00076069394621F049FE0646D2
:10246000606986421CBF66614BF0080B002E00F0CD
:102470009B80F089A90806F11005284415F00EF993
:10248000F089E27929183844CA70F081DAF8380006
:102490002AF037FD4BF0040B4D46C5E72C4621F0E2
:1024A00019FB80462AF066FDDAF838906A496B4ECF
:1024B000DFF8B8B7D9E90550AFF30080AFF300807B
:1024C000AFF30080AFF300800002C1F81054AFF307
:1024D0000080AFF30080AFF30080AFF30080C6F858
:1024E0000A005F48AFF30080AFF30080AFF30080D5
:1024F000AFF300800088ABF80E00AFF30080AFF3BD
:102500000080AFF30080AFF30080BBF80E0026F030
:10251000E1FA70800020AFF30080AFF30080AFF3EA
:102520000080AFF30080A6F86200AFF30080AFF345
:102530000080AFF30080AFF300808BF84800B9F85B
:102540001200F08110208BF80500DFF82407C07816
:102550000F281CBF9AF8320010F0010009D027F0B4
:1025600063F84FF4001028F0B5FB4FF4001024F08E
:10257000ADFFBAF8020027F0F9F807469AF83000E4
:102580001AF074FF38B106469AF83100314608F067
:10259000BDFB002866D082208AF805000226254669
:1025A00031E34FF0000B18E08520454601216071B2
:1025B0002948AFF30080AFF30080AFF30080AFF3A2
:1025C00000800160A079029F38B1DFF8A8060122DF
:1025D0000169DAF83C0008F0D5F9B80440F14F8100
:1025E000DFF88886B8F80A4028F02EFB261AB8F8DB
:1025F0004240A64280F04381CDE90157B8F84470CB
:10260000144D4FF00209DAF8380027F0A6FB80B12C
:1026100080F808908189D8F83820904204BF0020C3
:10262000C8E90E00013F481D29462840241AA64249
:10263000E9D3019DB44240F01181B7F1FF3F40F36F
:102640000D814BF0100BA8F84470A8F8426013E11C
:10265000CC110840FCFF0100301008403A2009402E
:1026600034200940032F40F06E8299F81000B0FA30
:1026700080F04109304602F05BFF13F021FEB84EB6
:102680000020AFF30080AFF30080AFF30080AFF322
:102690000080A6F880009AF93010CAB2402A38BFEC
:1026A00042F04000002948BF01F07F00AFF30080F6
:1026B000AFF30080AFF30080AFF3008030809BF871
:1026C000041061B1A74985EA0060AFF30080AFF361
:1026D0000080AFF30080AFF30080C1F81004FF204A
:1026E000AFF30080AFF30080AFF30080AFF3008062
:1026F0004146F08350461EF011FD0F283FF64CAFC7
:10270000DAF83C00002800F02881DFF86815096934
:10271000AFF30080AFF30080AFF30080AFF3008031
:10272000C6F86A107F21AFF30080AFF30080AFF3EB
:102730000080AFF30080A6F85A104FF4FE41A0F8D5
:1027400001100178AFF30080AFF30080AFF3008099
:10275000AFF30080C90740F00B810021A6F84010BC
:10276000AFF30080AFF30080AFF30080AFF30080E1
:10277000A6F84210AFF30080AFF30080AFF3008003
:10278000AFF30080A6F84410AFF30080AFF30080F1
:10279000AFF30080AFF30080A6F84610AFF30080DF
:1027A000AFF30080AFF30080AFF30080A6F84810CD
:1027B000AFF30080AFF30080AFF30080AFF3008091
:1027C000A6F84A10AFF30080AFF30080AFF30080AB
:1027D000AFF30080A6F84C10AFF30080AFF3008099
:1027E000AFF30080AFF30080A6F84E10AFF3008087
:1027F000AFF30080AFF30080AFF30080A6F8501075
:10280000AFF30080AFF30080AFF30080AFF3008040
:10281000A6F85210AFF30080AFF30080AFF3008052
:10282000AFF30080A6F85410AFF30080AFF3008040
:10283000AFF30080AFF30080A6F85610AFF300802E
:10284000AFF30080AFF30080AFF30080A6F858101C
:10285000C170C0E902110161017510E184200121FC
:1028600088F805003F48AFF30080AFF30080AFF376
:102870000080AFF300800160029F45F40035DFF86F
:10288000F013C5F38010C9780F2910D0B9020ED506
:10289000DFF8D8130122AFF30080AFF30080AFF36D
:1028A0000080AFF3008081F848202E490A6040EA9A
:1028B0000B0648F2010007423FD0032000BF00BFD3
:1028C000294846F00206AFF30080AFF30080AFF373
:1028D0000080AFF300800088DAF838104882DFF813
:1028E0008C0390F8481009B1182024E04079102892
:1028F00021D11E483904AFF30080AFF30080AFF35D
:102900000080AFF30080008812D44FF0FF3111FA3D
:1029100080F1062900F29A811320DFE811F00C0003
:1029200007009901970197019B019D01142002E086
:1029300080B224F0BFFF8AF80500B00740F1638140
:102940009AF80520CB48103A0169DAF83C00B2FA4F
:1029500082F2520908F016F855E1002092E000BF1B
:102960003A2009403010084048200940062009401C
:10297000017AA6F84010AFF30080AFF30080AFF308
:102980000080AFF30080417AA6F84210AFF30080D8
:10299000AFF30080AFF30080AFF30080817AA6F838
:1029A0004410AFF30080AFF30080AFF30080AFF3CB
:1029B0000080C17AA6F84610AFF30080AFF3008024
:1029C000AFF30080AFF30080017BA6F84810AFF3AF
:1029D0000080AFF30080AFF30080AFF30080417B55
:1029E000A6F84A10AFF30080AFF30080AFF3008089
:1029F000AFF30080817BA6F84C10AFF30080AFF3FB
:102A00000080AFF30080AFF30080C17BA6F84E10CA
:102A1000AFF30080AFF30080AFF30080AFF300802E
:102A2000017CA6F85010AFF30080AFF30080AFF345
:102A30000080AFF30080417CA6F85210AFF3008015
:102A4000AFF30080AFF30080AFF30080817CA6F885
:102A50005410AFF30080AFF30080AFF30080AFF30A
:102A60000080C17CA6F85610AFF30080AFF3008061
:102A7000AFF30080AFF30080017DA6F85810007816
:102A8000C0F340008BF806009AF8040000274FF0CE
:102A90000008012805D17748DAF820100069A1EB79
:102AA000000820F0B1FB18F03BFBABF80800DAF8A7
:102AB0003800CBF814702AF024FA1CF035FBABF880
:102AC0000A0099F8100024F4803430B1B9F81200EB
:102AD00000F01800B0FA80F0470900205E4601259A
:102AE00002213B4646F8380FC6F80A007060484697
:102AF000324635720CF080F85B4870214AF2711250
:102B0000AFF30080AFF30080AFF30080AFF300803D
:102B1000008801EA001116F8323C4AF2F110002B4D
:102B200008BF81EA020024F0D1FC99F81000A0B19E
:102B3000BAF83410132708EB01000028C8BF032798
:102B400041B3012826DAF8B200218AF8057025463B
:102B50000F2888BF01214E0055E04248AFF30080A6
:102B6000AFF30080AFF30080AFF300800221A0F844
:102B700082502AF029F927F0DDFA022000BF00BFB9
:102B80000420AFF30080AFF30080AFF30080AFF319
:102B9000008029E0002908BF08463249AFF30080D1
:102BA000AFF30080AFF30080AFF30080A1F85C00CA
:102BB0000020AFF30080AFF30080AFF30080AFF3ED
:102BC0000080A1F8820012212AF0FEF827F0B2FA64
:102BD000022000BF00BFAFF30080AFF30080AFF36F
:102BE0000080AFF3008003201D490BF13802002361
:102BF00025460026086048464FF0FF310BF0FCFFE9
:102C000003208AF805009AF80500032813D1E80389
:102C100005D5DAF838002AF074F925F48035A803D0
:102C200009D51249DAF83800002301F138024FF0D3
:102C3000FF310BF0E1FFB00705D512F0EBF824F0FF
:102C40009DFB28F060FA3046BDE8FE8F102072E64A
:102C5000152070E641206EE6022027F0CBFA6AE6E6
:102C6000301008403A20094034200940082701204C
:102C7000202A0300A42D01202DE9F0438DB0044645
:102C800080780026102800F2A583DFE810F080008D
:102C9000A303A303A303A3031100AC00A303110028
:102CA000C4004600DC002500A303F3004C005C03D5
:102CB0006078FC2802D0002840F08C83E178658998
:102CC000277B0096201D05AA00232AF071F8002812
:102CD00000F0ED80012653E1267BA488204621F0F8
:102CE0006FFE002800F07583054629F091FA002850
:102CF00040F06F836979002000230090A81D07AA87
:102D00002AF056F8002800F0C281DFF81007C078DA
:102D1000002840F0598320463DE16078002800F00B
:102D200044810025F6E2DFF8F466F06A28B14368D2
:102D30001BB1A088002100229847F178A0880029C3
:102D400000F0298121F03CFE002800F07781054643
:102D5000A07AC0070ED069790020002200230090DD
:102D6000A81D2AF025F828B16879022802D3A08985
:102D7000800507D5F07B022840F01C81A07A00076F
:102D800000F11881A088032127F034F956E160781A
:102D9000002840F01F8329F0FFFC044629F070FE54
:102DA000054625F00FFFDFF880668DF81C00022035
:102DB00010212246B047032010212A46B04707AA17
:102DC00004200121B0479DF81C0040F002000328B8
:102DD00040F03481012019F085F8024606200621D2
:102DE00028F010FD2AE1A08822F0ECFB2AF0FFF881
:102DF000002840F02381DFF82446A07B012840F022
:102E00000E8126F059FD0020627D0021A073606ACA
:102E100029F017F909E1E178002000230090201D36
:102E200007AA29F0C5FF002840F0D3829DF81C00B6
:102E3000252104F10C0200EB400001EB40000421CD
:102E400028F0E0FCC5E229F0E3F9002800F0C18297
:102E5000DFF8C805C06A002800F0A1800568002DD1
:102E600000F09D802069227B637B61890090E01CDB
:102E7000A847AEE26078062840F03581A08821F0AE
:102E80009FFD002800F02F81DFF89015897C013923
:102E9000032900F22881DFE811F004001E01180167
:102EA00023014179A088002215F028F91BE1B7F130
:102EB000080618BF01269DF8140026F081FFDFF8F0
:102EC0005C95804699F8170080002AF025FA0028C2
:102ED00000F0B180044699F803009DF814104246B2
:102EE0003B460238B0FA80F04009009028461BF0BB
:102EF000DAFE07AF00211422384629F0A2F89DF827
:102F0000140024213A4600EB400029F0ABFEC0B982
:102F100007AFFF211022384628F0E0FD88B99DF860
:102F20001400252107F1100200EB400001EB4000E6
:102F3000042128F03BF808F0010128463A461FF02A
:102F400023FF99F817109DF81400224600F5A6708B
:102F5000890028F02BF8002872D099F8180040B9A1
:102F60005FEA887005D5DFF8B0040178284620F0C4
:102F700007FD9DF814001BF007FD20462AF0D0F94C
:102F8000002E5BD0DFF89404C078022856D1284682
:102F90002AF0F7F852E0052127F02CF819E26089B1
:102FA0000121012627F026F814E2A079C00706D1F6
:102FB0000025B4E16979A08804F1080207E205A8B8
:102FC0000021082229F03DF8A08821F0F9FC002812
:102FD00071D067698146AFB107F111060021062261
:102FE000304628F07BFD002800F0AF8038460021F5
:102FF00006224FF0000828F071FD002800F08E80B6
:10300000C4F8148099F8050009F10601062200F0C1
:1030100001008DF81A0005A829F022FAB9E0E07C39
:1030200020B314F0B5FD0020E074502027F0A2F981
:103030001EF09EF802E0042028F048FB0026C9E1BB
:10304000204626F04BFC99F8170000278742BFF472
:1030500084AF34F8271039B104EB87008278284612
:1030600027F0E8FC99F817000137EFE7607D0025AD
:1030700000268642D9D2616A895D012905D1F0B264
:103080000CF018FF606A8555607D0136F1E79DF808
:103090001C0026F095FEFF2800F09681024670077E
:1030A0002FD472BBAB7C01209DF81C1000902046F1
:1030B0001BF0F9FD8DE127F0D1FE00287AD0D6482B
:1030C0000421007812F05CFC74E040F20940002119
:1030D000002204F0F9FCA088052120F00DFC02E09C
:1030E000A08820F0C3FDCD48C06A002800F071819F
:1030F0004368002B00F06D816278A0880221984718
:1031000067E106F00C000C2800F05981082800F057
:1031100051810428C6D1D007C4D155E1387C00259F
:1031200000F0010701353046394600220023357092
:10313000CDF8008029F024FA00284FEA056001D17B
:103140000028EFD100283FF45BAF66690EB3307CF6
:1031500006F111080622414600F001008DF81A0020
:1031600005A829F07DF999F8050009F1060701285D
:1031700005D109F10C003946062229F071F93846CB
:103180004146062229F06CF9307C40F0020089F8B3
:10319000050099F80420A179022000EA510002F00C
:1031A000FD020907104454BF00F0DF0040F020008A
:1031B00089F80400A0799DF81B2000F00801C0F3F5
:1031C00080001143084361698DF81B0021B30DF1A4
:1031D0001C081022404629F043F94046102127F0F0
:1031E000ABFADFF83C928F4D0027002699F80000DB
:1031F000864211D22968CA5DFF2A0AD0C819102256
:1032000000F10D01404627F0B5FE012806D099F8DF
:1032100000001E370136EBE7FF2600E0F6B200257E
:103220009DF81A100DF133020023009505A829F02E
:10323000A7F9FF2E1DD034281BD17848007D012826
:103240005FD0B0B97749C6EB0610002200230968A9
:1032500001EB400010F8011B00920DF1330229F040
:103260008FF930B99DF833000CF024FE002800F0EF
:10327000B5809DF81A10009505A80DF133020023C2
:1032800029F07EF920B122F07FF98DF8330019E0A2
:1032900061699DF83300A9B100EB4000232107AA22
:1032A00029F0E0FC60B907A8FF21102228F016FCE5
:1032B00030B99DF81A0005A900F0010027F0E2F9E5
:1032C0009DF833005549497D884218D2D4E902213E
:1032D000D4E9043500270E69CDE90051CDE9026734
:1032E00005A90CF075FEC0B30546A08817F05CFA7E
:1032F0009DF833000CF0DEFD1DF03AFF06E01525C9
:1033000004E0A088052120F0F7FA0125A08822F02A
:1033100059F960780B2802D1A08820F0A7FC3F4E15
:10332000F06A80B1436873B16278A0880121984740
:10333000607840B9A079C00705D0F16AA0882A4614
:103340004B680321984727F089FD002841D0324877
:103350000421007812F014FB3BE029F09BFA0546AB
:10336000A08821F02DFBBDB1B0B1407C00F0C000C1
:10337000402811D09DF81A0005AA00F00101284646
:1033800015F090FCFF2807D09DF81A0005A901222E
:1033900000F0010027F0A3F9A08817F005FA1F49F3
:1033A000A088897D11B122F00DF901E01FF08CF9A0
:1033B0000025AEE712F0090F7FF474AE04E0D007E9
:1033C00002D010073FF56EAE69792046002214F056
:1033D00095FE012630460DB0BDE8F0831DF0C8FE15
:1033E00022F0D2F8D4E902210025D4E904368DF880
:1033F000330009B10F6900E00027CDE90061CDE994
:10340000027505A90CF0E4FD0546A08817F0CCF97B
:10341000002D7FF46DAFC2E76C320120503A0120DD
:10342000973201204432012005B802002DE9F04F07
:103430008FB08146087818B94D780F46012D04D118
:10344000062528460FB0BDE8F08FBE7890461D2EA9
:1034500001D01B2E1BD1DFF8C0B59BF80000FF2860
:10346000EED01D2E22D1484624F0F0F8F0B1827A39
:103470000646E2B150B2002800F1B98248461D214B
:1034800025F018FCB07A40F08000B072AFE24846F8
:1034900024F0DCF8002800F0AA828346012E41D1F6
:1034A000B988B86803AA27F0E0FD47E00026BB888A
:1034B000BA680DF10C0A002029460024CDF800A0BE
:1034C00026F0D4FB05460028BBD1FF208DF80B4029
:1034D0008DF82600DBF8040050B1036843B10DF10C
:1034E0000B010DF1260248469847002800F076802F
:1034F000BB789BF8000049460022CDF800A01DF0E3
:1035000068FB054600289CD1049810B1002088F87B
:1035100000000025002E94D0B8781D2804BF1D207F
:10352000B0728EE79BF80200864255D1DBF804307A
:10353000002B51D0B988B86803AA984705460028DF
:103540007FF47FAF9BF802000538C1B2C20142EAA6
:103550005101C9B2092900F2728001228A4012F099
:10356000570F65D0BE784FEA70000125092800F298
:103570000D82DFE810F00A00FA006E000B02150160
:103580000B0235010B020B02B500052E40F0028143
:103590009BF8240004999DF80E3029F0E1F9012BE5
:1035A00001EB800200EBC00001EB4000A0F1110133
:1035B000A0F1120008BFD11E097808BF101F0078C3
:1035C00040EA0120BBF80E10884280F0EE8129F01D
:1035D00008F827F0FBFE23E1042532E79DF80B20D5
:1035E0009DF8261048461BF04FFF00283FF480AF9F
:1035F000049810B1012088F800003EB1B8781D2869
:1036000004D11D20B072484624F068FADBF80400AB
:10361000002800F0EC814468002C00F0E881484666
:1036200028F051FA012840F0E2814846A047DEE147
:10363000092904D1DBF8101000297FF493AFDFF8DB
:10364000E0139BF809000978884240F0ED800025DE
:10365000F9E0092E40F009819BF82400BDF80C1018
:10366000049C9BF80C2001304B1E8BF82400BDF805
:103670000E0043439BB2012AE35A40F0628141436A
:1036800000240BF1130501938FB20021ADF80C401B
:103690005FFA81FABA4580F04B810499053883B20C
:1036A000284651444A1D9BF812101DF011FA90B1A2
:1036B000A0B2824506D00499BDF80E2008445144BA
:1036C00028F0CEFEBDF80C000130ADF80C00BDF8BE
:1036D0000E00044401E0BDF80E000AEB0001D7E73C
:1036E0009BF80C00012840F0CD80172E40F0F380AD
:1036F0009BF81510DBF81000BDF80C3001EB410110
:1037000030F821209A4240F0E68000EB8100BDF8BD
:103710000E204188914240F0DE808288BDF8101072
:103720008A4240F0D8808068059927F023FC002861
:1037300000F0D1809BF815009BF814200130C1B235
:103740008BF81500914280F063814900DBF810206E
:1037500051FA80F032F8201002EB80008388428812
:103760008468BBF800000094B0E0072E12D19BF8EB
:103770002400049929F0F4F801EB8000BBF80E1046
:1037800030F8040C884280F0108128F02AFF1EF0E7
:1037900005FA45E09DF810000A2800F0AD80F5E03C
:1037A0000D2E40F0A5809BF82400BDF80C400130A0
:1037B0008BF82400BBF8000027F04AFC0138A04237
:1037C00000F3F380BBF80E00BDF80C1008440BF1B9
:1037D0000C01ABF80E00BBF8000027F00FFE1FE055
:1037E000112E40F08E809BF82400BDF80E1029F0B9
:1037F000B7F801384843049911FA80F04FF6FF7189
:103800004088884200F0D180421C594621F80C2F94
:103810004A88824240F2C980BBF8000025F0C0FD12
:1038200029F086F81624C1E0BB7803A9002229F00C
:10383000DFFA054638B9B97803A820F05BFA00250D
:1038400008B188F800509BF80200032809D1BBF8A2
:103850000C00BDF80C10884238BF014648461EF0E7
:1038600087FC584617F005FFEBE59DF81000062889
:1038700001D00A285ED19BF82400002840F0818006
:1038800001205AE0172E26D1BBF8000027F0E0FBFC
:10389000421FBBF81C00BBF814508418BBF8120080
:1038A000ABF81C40201A83B2AB4280F0A280DBF858
:1038B0001810EB1A934211FA80F7BBF81010BBF8FE
:1038C00000000097B8BF1A4693B2A2B21FF05CF98D
:1038D000002800F09A8000208DF826000DF12601C6
:1038E000BBF8000027F066FD012E14D101201BE07B
:1038F0009DF81000072849D19BF82400002840D1EA
:1039000044E09DF810000A2840D19BF82400B0FA4A
:1039100080F0450936E029F00BF84048CBF8040068
:1039200019208BF802001620012501282ED05CE01A
:10393000019B06E09BF824000130BDF80E308BF8A7
:103940002400581E4FF6FD7188421AD8BBF81000AB
:10395000834216D29BF80C20591CABF80E10012A9A
:1039600049D12822ADF82610ADF828000DF1260126
:103970008DF82C2040F20232ADF82A20BBF800006E
:103980003DE00025012E08BF002D08D0092E04D1EE
:10399000BDF80C0008B92C4610E02C4606E09DF856
:1039A00010000A2801D1012514E000249BF8090029
:1039B00003A90022334629F01BFA08B1012506E0CD
:1039C00003A8314620F096F9B0FA80F04509162C8C
:1039D0000BD03CB99BF802309BF8090000211A2259
:1039E00029F006FA584617F044FE88F800500025E2
:1039F00027E5012070E7BBF800000BF10E0125F070
:103A0000E1FC28F095FF1625C0E728F091FF8AE732
:103A10009BF8160060E700BF1442012093CB020020
:103A20007E3201202DE9FE4F002800F0328204464C
:103A3000BC30DFF8B4554FF00109029004F5B370C3
:103A400004F1B40704F1D00604F1A40804F1E00B7A
:103A500004F20D1A019094F88100002800F08A8287
:103A600094F87710A1F12D000D2840F21682881EDF
:103A7000282840D8DFE810F01E0248002900F10095
:103A8000C700090148009900480011013F0190005A
:103A9000B5001E0174005301710148006000480028
:103AA0004B00A70048004800480048001A024800A0
:103AB0004800480048004800480016021602160256
:103AC00048004800480048001A0229F085F940F0F3
:103AD0002A82E87A002800F0F5810020F121F42202
:103AE00084F86C00204616F0E3FEA079029A39466D
:103AF00020F066FDAFE7F22900F03581F12900F0F2
:103B00003982F32900F01E8229F013FAA3E729F085
:103B100063F940F0DF8194F8BC0141065CD4C10731
:103B200040F0AB81810740F13F8200F0BC00A179F9
:103B300084F8BC011A20A7E129F04EF940F0CD81AC
:103B400094F8B001810600F13C81810740F1BA810F
:103B5000002100F0DD0084F88A1184F8B00169E1E9
:103B600029F03AF940F0D38194F86901012840F036
:103B70005D8194F88401A9463D4637460F2801D05F
:103B800029F0D7F926F0FAF829F0DFF93E462F465A
:103B90004D464FF001095EE729F01EF940F0A38180
:103BA000E87A002840F0CB80D5E029F015F940F004
:103BB000BD81E87A002800F08581022084F80401A4
:103BC000608CE08319E029F007F940F0A68194F8B1
:103BD000BC01410640F1768100F0BF0084F8BC01D1
:103BE00028E129F0F9F840F0818194F804010328D4
:103BF00000F02381022840F0CE81A17900205246B6
:103C000021F01EFB16E129F0E7F840F08381E87A05
:103C1000002800F05781608CE08329F096F929F0A4
:103C20003FF894F8FC0094F8051184F86C90012892
:103C30004FEAC16040F00A81002809D5D4F860112C
:103C4000002084F8650194F8660149081CF0E0FD45
:103C5000A079002122F006FE07E129F0BDF840F02E
:103C60008A80E87A48B1A0790121012284F89A90EB
:103C700029F015FA0020C4E93D0094F8FE0001285F
:103C800040F020812046062111E02046072105F062
:103C900091FF012800F0CE806CE129F09DF87CD1E5
:103CA00094F8FF00012840F00D812046F12129F011
:103CB0004FF9D0E629F090F840F0328194F869018C
:103CC000012840F09E8094F88401D946C346B84646
:103CD0005746B2460F2801D029F02BF926F04EF8AE
:103CE00029F033F9C04D5646BA464746D846CB462A
:103CF0004FF00109AFE629F06FF840F0FF8094F82B
:103D00001501012840F0158194F81601012840F0B2
:103D1000918028F072F900201FF09EF98AE029F0C6
:103D20005BF840F0DD80E87AA8B194F884010B28B4
:103D300008D809FA00F040F67841084202D0002085
:103D400084F89A00A0790121002229F0A8F928F02E
:103D5000A7FF84F86C90A87A6AE029F03DF840F05B
:103D6000D380E87A64E094F88610204629F0F0F8D1
:103D700084F876906FE694F8F000012800F0FE8059
:103D800094F8F100002800F0F5805846414632468C
:103D90001DF0ECFD84F8F0905DE620460B2105F067
:103DA00009FF012840F0E68000200121002284F86C
:103DB0009A0084F8FF00A07929F071F984F87690D0
:103DC00049E600F0DF0184F8B011010715D500F0D5
:103DD000D700AC463D463746B4F89E31B4F8A02132
:103DE000B4F89C11B4F8A26184F8B001A0790096EF
:103DF0003E462F4665461EF0EBFA002084F88A0105
:103E000018E094F86801012810D1B4F8942000203B
:103E1000B4F89230A17984F86801B4F890001209DE
:103E2000009242081A201EF0ADFA03E094F88800D0
:103E3000002847D029F089F80DE6A1791A205246CA
:103E400021F0FEF9002084F80401F3E7002807D5EB
:103E5000D4F86001019B21464208644828F058FECE
:103E6000A0790021012222F0E3FC002084F8000167
:103E700084F8FC00A4F8FE00EDE500F0BE00A17996
:103E800084F8BC0194F88501002200231AF052F84E
:103E9000D0E729F04EF801256DE0204629F0ADF974
:103EA000054668E0204629F044F9F9E7204629F064
:103EB00028F9F5E728F090FF56D1A87A10B12046EE
:103EC000162104E028F078FB54D12046222124F06A
:103ED0007DFFE0E72046162148E02046142145E01A
:103EE0002046112142E020460D213FE020460E21D0
:103EF00005F060FE012184F8041139E001200C2155
:103F000084F81701204631E0204612212EE0204699
:103F100010212BE02046062128E02046172125E02D
:103F200020460F2122E0204604211FE020460921DF
:103F30001CE028F041FB1DD128F05FF822201FF083
:103F40008BF8C2E794F88610A1F10C00082846D837
:103F5000DFE800F0054505344545454505002046A8
:103F600028F0F6FF012003E02046022105F022FEA2
:103F700084F8760000252846BDE8FE8F20460521FE
:103F800005F018FE00250128F5D1012084F8FE5027
:103F900084F87600EFE728F00FFBEBD1A17922201F
:103FA000524621F04DF990E728F006FBE2D1A179C5
:103FB00022200022002319F0BDFF86E72046F121D0
:103FC00028F0C6FFB4F87031B4F86E21B4F86C1163
:103FD000A079B4F8724100941BF076F8CAE700208B
:103FE000002527F073FBC6E71C2F0120CD9E0100A2
:103FF0002DE9F04F95B007680446B86A01303FD00C
:1040000000203882387F022801D001283BD1B869CE
:1040100050F8045FBDB3DFF8181528F075FF0028CD
:104020003FD0DFF8101528F06FFF00284BD0DFF8E5
:10403000081528F069FF00285BD0DFF8001528F08C
:1040400063FF00285AD0DFF8F81428F05DFF00283D
:104050005CD0DFF8F01428F057FF00285CD0DFF8C0
:10406000E81428F051FF00285CD0DFF8E01428F0B5
:104070004BFF002800F0C780787C20B1F98959E017
:104080006FF01F05F9E1387B411E07292CD8DFE8C6
:1040900001F01F040E25040E4B224FF480710228FC
:1040A00008E00120E0217874F981387342E04FF490
:1040B000C0710328F98102D1012078743AE040F2FE
:1040C0000120388235E001204FF48071022219E08E
:1040D0000120E02105E00320FF2102E0012040F261
:1040E00009217874F98125E000206FF020057874AB
:1040F000C3E101204FF4C071032203E0012040F22C
:10410000092104227874F9813A7313E005204FF4F1
:1041100080713873CF480AE006204FF4C0713873BD
:10412000CD4804E007203873CC484FF40071C7F83D
:104130000E00022007F13C0207F1400311F064FB7E
:10414000002800F0988139680B78022B18BF282BC3
:1041500027D178683A7F0578012A45F0200502D1F9
:10416000242D08D022E0222D20D1BD682D7845F0E5
:104170002005242D20D11B074FF0040358BF08232E
:10418000CB58F9890731B3EBD10F12D1B97F5D005C
:10419000A9B13E7B8168082E1ED1994219461ED0D6
:1041A00025E0222BD5D06FF0210566E16FF02205C6
:1041B00063E16FF0240560E16FF023055DE1816844
:1041C0006E1CB14213D1022A14D140680078042831
:1041D00007D06FF0280550E1B1EB430F07D1022A59
:1041E00008D1B86882689A4209D1194614E06FF084
:1041F000250542E1012A0FD0B86881680CE0AA4287
:1042000005D1294608E00320FF2108227AE745F07E
:1042100001018A4240F03581406828F0F9FD07F13C
:104220004400902128F0F4FD386A214621F054FD25
:10423000002800F0DD80386A27F01CF9002800F023
:10424000D580D4F80090D9F8000090F800A0BAF119
:10425000280F40F0D08022F0A1FF4FF48041D9F820
:10426000000009F12C0648220191B949334600911A
:1042700003A910F09DFC0546D9F8200027F0FAF8B4
:10428000002800F0D680002D40F0D780306800284C
:1042900000F01681002089F8D4002668B048042573
:1042A000317B00F5001008291CBF44F20100C0F268
:1042B000210008390A4618BF0122F38918BF0021DE
:1042C0001F335B0905EB830303FA02F225F0D2FEEC
:1042D000A44928F07DFD002840F0A88018F012FACB
:1042E000002840F0A380B56A002D40F0A680307F02
:1042F000022834D12668902106F14405B6F80E80D4
:10430000284628F085FD706896F80CA00122B17F40
:10431000337C4068BAF1080FCDE90015414618BF5B
:10432000022217F08DFE08F11F000421400901EB65
:104330008000BAF1080118BF0121326B00FA01F1C7
:10434000284624F0C3FA854928F042FD00286DD1A3
:1043500018F0D8F9002869D1B56A002D6DD122F086
:10436000B1F918B999F81C00022821D125686FF01D
:104370000301E8891F3001EAD002287F012806D115
:10438000287B083818BF0120111D01FA00F240F205
:104390000140002125F06EFE734928F019FD002828
:1043A00044D118F0AFF9002840D1AD6A002D44D1B6
:1043B00025686E4800212A6C25F05CFE6C4928F0C7
:1043C00007FD98BB18F09EF980BBAD6AADBB2568B0
:1043D000D5E90E20296C24F079FA664928F0F8FC1A
:1043E00020BB18F08FF908BBAD6A26E026F0A0FBD1
:1043F0006FF0010541E046684D46297B5548082984
:104400004FF0000108BF00F5001008BF0021EA8945
:1044100004231F32520903EB820225F02BFE4E4982
:1044200028F0D6FC10B918F06DF968B34FF0FF35DD
:1044300003E026F07DFB6FF0010522F043F900B99F
:1044400015B122F0ABFEC5B9387B082808D100258C
:1044500013E000BF0001010280010102000201021D
:10446000256828461DF01CFF434928F0B1FC10B90F
:1044700018F048F938B34FF0FF35284615B0BDE8BD
:10448000F08F6FF02605F8E7AD6A002DD5D12568CD
:104490000120042189F8D400B5F80EB00BF11F00FB
:1044A000400901EB8008BAF1280F0ED1287B0828BB
:1044B00028D1307900F0F800307106F123001DE0BA
:1044C000256803AE99E7AD6AD7E705F14406414692
:1044D000304628F09DFC2868AB7F2A7C594640680E
:1044E000009624F0CBF9287B08280BD195F84800DA
:1044F00000F0F80085F8480005F16700017841F008
:1045000040010170EA6A3046414624F0DFF9134960
:1045100028F05EFC00287FF489AF18F0F3F800283B
:104520007FF484AFAD6A002D7FF487AFB5E600BF9E
:10453000B41B0300D81B0300FC1B0300201C03005A
:10454000241B0300481B03006C1B0300901B03008B
:104550000000020901482104B3A50200A9B9020024
:10456000014021000DA60200EFA5020001440F004A
:10457000D1A5020093B90200BFB902002DE9F04FA6
:104580008BB045881C4691468A460746E5B938886F
:1045900044F2411220F44051914201D1FF2513E031
:1045A00028F074FB05D0B0F5E04F40F0C980E5007D
:1045B00005E06FF0030000EB840020F00405B5F582
:1045C000047F08BF40F2092500260121F868DDE9D3
:1045D00016C8DDE914E34FF0000B00F0FE42B2F123
:1045E000106F29D0B2F1E06F19D0B2F1C06F40F076
:1045F0003381002144F20102C8E90021398821F405
:104600004053934263D14146002200237446E14661
:104610000DF070F8002800F09780064657E1D34A65
:10462000002102F58032C8E90021D14A90422CD104
:10463000D048C8E9000135E0CC4AC8E9002BCE4A91
:104640001040B0F5003F40F00781388800F4E042A8
:10465000B2F5804F00F09480B2F5E04F40F0308129
:104660001F460023C54A00F44F44B4F5824FC8E901
:10467000002308BF0346DBB2122B02D0412B40F0CF
:10468000F580002940F0008111E102F5807120F0F1
:10469000FF028A4240F0E080B9490022002328F05E
:1046A000EBFA0646002E40F01081388828F0EEFA2A
:1046B00009D0B0F5E04F40F0CD80D8F80000B14906
:1046C0000843C8F80000002D40F0BE81C2E001F4AC
:1046D0004F42B2F5824F40F0BF8040F2FF1220EA15
:1046E0000202B2F1062F40F08780A0492A46FF233C
:1046F00001F53C1128F0C0FA00288ED1388800F46A
:10470000E041B1F5804F00F03F81149AB1F5E04FE0
:1047100040F0D680D8F8001041F40061C8F80010CD
:1047200000F44F41B1F5824F18BF0020C0B21228EB
:1047300000F095813028169840F0C280112390E156
:104740006FF08606002141E7388828F09FFA69D08B
:10475000B0F5E04F7ED1F868D54A23464FF0000B04
:1047600020F0FF01D448914200F0DE80D14A4C464F
:10477000914200F0DA80CD4881426DD1CF48D4E03B
:104780004FF0000A0DF11E011E460DF11F03E34616
:104790008DF81EA008AACDE90053CDE904E6CDE9C5
:1047A000022100F44F412246B1F5824F494618BF1D
:1047B0005046C3B201200CF089FA0646388800F44E
:1047C0004F41B1F5824F4FF0000108BFC1B24FF425
:1047D0000010122918BF302941D1D8E9001208432E
:1047E00042EA0A01002EC8E900016BD1002D67D012
:1047F000ABF80050002665E0A94A90422CD1A948A8
:1048000001F4E042B2F5804FC8E9000B66D0B2F582
:10481000E04FDDE914231FD100F50060C8E9000B6B
:10482000C8B25EE0F968A04841F2FF02084421F0F6
:10483000FF0190439D4A914200F0CF809C4A9142F3
:1048400002D09C4A914205D14FF0000B20B94FF4A1
:104850001000C9E04FF0000B6FF0860637E04129E9
:104860002ED14FF0000A4FF48000B6E720F44050FC
:1048700044F23014A04218BF6FF08606001BB0FA55
:1048800080F0400908420AD002F50011122B09D02D
:10489000412B05D0302B13D10022112004E006E07B
:1048A00002F58001002201200026C8E900124EB95D
:1048B000BAF1000F06D1BEF1000F18BF002F27D1AB
:1048C0006FF08606002E00F0BF804FF0000B002036
:1048D000C8E900B030460BB0BDE8F08FC8B2DDE9E2
:1048E00014234228B8D1002DB6D0BAF1000FACF88D
:1048F0000050E7D1B2B3ABB327F050FE1968814244
:1049000030D3186000924846294600221123C3E0A4
:1049100005F11F010422490902EB81013A688A422C
:104920006BD26FF08906CDE74C46D8E900120843F8
:1049300042EA0B01002BC8E900013FF48DAF159A44
:10494000002A3FF489AF002D3FF486AF1F206FF09F
:104950000701258010FA85F001EA900011680830FF
:10496000814270D26FF08906B1E700BF01400100BB
:1049700000020007014082000000FFF60148010428
:104980000140A2000008000400210DF126020DF1F3
:1049900027068DF826100AABCDE90056CDE9023284
:1049A000149A0492159A059200F44F42B2F5824F80
:1049B000224608BF01460120CBB249460CF086F9D9
:1049C000064600287FF47EAF9DF8260000287FF47D
:1049D00077AF0A98169908800CE74FF0000B002873
:1049E0003FF43AAF4FF40000D8E90012084342EA1E
:1049F0000B01C8E900013DBB2EE7002D3FF460AF7D
:104A00001F210422C3B24846ACF800500026744669
:104A100011FA85F1490902EB81010022396029462A
:104A2000CDF800E01AF078F8FF2D7FF44BAF207935
:104A300094F82310224600F0F800207141F0400065
:104A400084F82300D6E610601AF0AEFD08B1002607
:104A500040E7D8E90010002641F4807B38E716983B
:104A60000123002D3FF42CAFBAF1000F05807FF435
:104A7000C1AE002A3FF455AF159C002C3FF451AF56
:104A800027F08CFD21688142FFF44BAF206000923B
:104A900048462946002200261AF03EF812E700BFD9
:104AA000000800060140503800FDFFF90002000632
:104AB00000130006000300060008900000088000B4
:104AC0002DE9F04F9BB00446DFF82405406818B18B
:104AD0008047002800F06B82DFF81805DFF81885A2
:104AE0000A940DF134094FF0000B007808F1180713
:104AF000411E002C0B9118BF012198F801A098F8D5
:104B00000240002588F80F10C0B2854220D2AC4286
:104B100018D0EEB200214A460423304627F0B8FBF5
:104B20000D9810F4403F40F00400C0B218BF0BF1E4
:104B3000010B7C2806D130460621F82226F0AEF87B
:104B4000F8203870DFF8AC040C3701350078DBE76B
:104B50005FFA8BF10138884204D198F8050008B952
:104B6000002041E2DDF82890B9F1000F484608BF67
:104B700010200990002006900B9E00255746300417
:104B800000F0F58198F80F0010B9012088F80F00A7
:104B9000F8B200210DAA04234FF0000B27F078FB98
:104BA0000D98B9F1000F1DD010F4403F17D04FF40D
:104BB0000060DFF840140135013EA8F8100098F8B5
:104BC0000F000978013888F80F00012050FA87F0AB
:104BD000B0FBF1F202FB110788F80D70CFE7BA467F
:104BE000AB460B96C0B2702804D05FFA8AF07021F1
:104BF00021F086FEE6B200210DAA0423304627F0FC
:104C000047FB9DF83400FE2803D03046FE2121F0FA
:104C100077FE30460621FE2226F040F84FF4006071
:104C200008F1160188F80C404FF0000988F80DA033
:104C3000A8F81000FF20A8F8149088F80E005FFA7A
:104C40008AF0400050FA8AF001EB8000C5887000BD
:104C500050FA84F001EB8004FE20A8F8125021469F
:104C600001F8020FE54808914FF4FA7128F0D0F8E6
:104C7000DF4834F806EFB44680F8009098F80F004B
:104C80000794002450FA8AF0411EDA48007891FB1C
:104C9000F0F202FB10110C91C1B25FFA8AF767457E
:104CA00000F0C5805FEAC97240F0D880AEB2162E1F
:104CB0001AD824B107EB470208EB820295830C9ABD
:104CC000D2B2974200F0D38001224FF000090024B5
:104CD00052FA8AF2B2FBF1F303FB112A0AEB4A0201
:104CE00008EB8202958BD8E7C148007800287FF452
:104CF00037AFA5F10709CDE904EC38460EAA1FFA33
:104D000089F115F0DDFFBDF8461001F11000B04249
:104D10000ED89DF8420096280AD1A9EB01099DF80A
:104D200041203B460E461FFA89F01AF08DFA38B33F
:104D3000DDF82890DDF814C0013DA8B21728C0F0B6
:104D400012813628A5F11606384688BF202613AAF8
:104D5000AD1BB3B2A9B227F09BFADDE904EC300435
:104D6000EBD013A810FA86F010F8010C962801D0A9
:104D7000013EF4E735444FF000099E4800788BE788
:104D80009DF84300DDF814C0C10707D1DDF810E03D
:104D90008007CDF8089005D4029DECE7DDF810E01F
:104DA0004D46E8E706F1070932461FFA89F010FA86
:104DB0008EF0B0F5006F02D94FF00109DDE70190E8
:104DC0008B48029A00785FEA094120D0F8B91FFAAF
:104DD00089F54FF4FA70894E91B2B5F5FA7F28BF84
:104DE00005460392384632462B4627F051FA049E78
:104DF0000598824A2B46B1B221F0A2F8039A7C4969
:104E00002E44A9EB0509049608702A44DBE7DDF877
:104E100004E001341FFA8EF0B0F5006F14BF4FF0BC
:104E200000094FF00109029DDDF814C0A5E7704AA2
:104E30001278002A7FF494AE57FA80F0DDF82890BB
:104E4000013890FBF1F202FB110A5FFA8AF0400090
:104E500050FA8AF008EB8000858B11E0DDF828908D
:104E60004CB107EB470008EB8000858303E0DDF8D9
:104E700030A0DDF828905E48007800287FF470AEFE
:104E80000798B8F9122098F80D100123A8F81450CB
:104E9000A8F810E088F80EA06446A0F800E060468C
:104EA00023F042F8B8F9142098F80E102046022397
:104EB000254623F039F8B8F81000B9F1000FC0F515
:104EC000006004D009998842A4BF01210691099984
:104ED0002C4688424FF07C012846B8BF782121F04B
:104EE0000FFD0BF079FF074698F80F000621FC2212
:104EF000C01B88F80F00284625F0D0FE0899FC203A
:104F000098F80EA0087098F8021017FA8BF0014478
:104F100038480078B1FBF0F202FB1014611C88F8ED
:104F20000240CAB2B2FBF0F202FB101188F8011085
:104F30000AEB4A0108EB8101898B102905D10AF19E
:104F40000101B1FBF0F202FB101A0B98C01BB9F182
:104F5000000F0B903FF410AE069880F00100C007E0
:104F60007FF40AAE03E0DDF810E0102583E77C2033
:104F700021F0E0FC0446FF281FD17E2021F0DAFC5E
:104F80000446FF2819D198F8014004EB440008EBCF
:104F90008000807DFF280CD0164898F80210007819
:104FA0000144013991FBF0F202FB101405E00B20E3
:104FB0001AE020467E2121F0A3FCE0B2FE2188F811
:104FC0000340400050FA84F008EB8000808BA8F882
:104FD000060098F8020021F093FC002088F80500F4
:104FE000B8F81000C0F5006000B21BB0BDE8F08F4B
:104FF000243C01206E320120982801202C10012031
:105000002DE9F04F99B0DFF810650546DFF80C4543
:1050100030780328207040F04381002030702070E9
:105020000DA827F087FD002840F0388101200D9061
:1050300004F124000DA91FF023FE002840F02E816A
:10504000DFF8DC745E21384627F0E2FE4FF0FF30D7
:10505000B8823861F86022F093FF002029461EF0E4
:1050600067F804F10C01A06027F02AFFD4E90402DC
:10507000DFF8B054B0FBF2F1C9B2062928BF06210F
:10508000B2F5006F3970297040F00881B0EBC12F84
:10509000C0F00481A068002800F00081DFF880449F
:1050A0004FF40060FF226FF0030A4FF0000BE08026
:1050B000FF20E270059000206071002010AE089083
:1050C00000200B90002009900020079000200690FF
:1050D00000200A9000200C90FF200290FF200490F6
:1050E000FF200390CFB2BB4580F0DD805FFA8BF7E5
:1050F000002118AA0423384627F0CAF8DFF82C54F8
:105100003846002117AAA8473846012116AAA84701
:105110003846022115AAA84718996FF06F0050FA77
:1051200081F2C8B20E2A06D8012303FA02F245F230
:1051300001131A4203D1A0F1FE02022A04D242F264
:105140008352B2EB914F1ED0384612F08BFFDFF83E
:10515000CC130028087040F0AA813846002118AA14
:10516000042327F095F8DFF8C4533846002117AA26
:10517000A8473846012116AAA8473846022115AA91
:10518000A8471899C8B20BEB4B0204EB8208C1F395
:105190000142090A88F817109DF85E1008F11609F7
:1051A000FD2888F8192089F8000088F8181001D91E
:1051B00010212BE0BDF85C104FF6FF724FF6FC7526
:1051C000914223D100204FF4006410901AFA84F425
:1051D000384632460423A1B227F05AF81098411CF1
:1051E00002D114EA0501F1D101210122CBB2042B35
:1051F00006D8C3B2FF2B18BF0A460131000AF5E7F3
:1052000054FA82F0C64C81B299F80000A8F81C103C
:105210009DF85A10702888F81A10BDF85810A8F890
:105220001E109DF8561088F81B10BDF85410A8F8F1
:10523000201010D0BB4D782812D07C2814D07E28A6
:1052400018D0FE281DD0FF2821D10898CDF80CB029
:10525000013008901EE00A98B24D01300A9019E022
:1052600006980130069015E00798CDF810B001308F
:1052700007900FE00998013009901FFA8BF0029017
:1052800008E00B98CDF814B001300B9002E00C98B8
:1052900001300C9029780BF1010B23E701203070CD
:1052A00019B0BDE8F08F0C9800060BD10B98C0B276
:1052B000012807D80A98C0B2012803D80998C0B2BB
:1052C000012810D99848954E042200240270CAB2D1
:1052D000E0B290420FD212F0C5FE3178013408439B
:1052E00029783070F3E70898C0B2B84214D18B4ED9
:1052F0008D48002202708A4C0020E0706070481EC9
:105300007E21A070A08BE080002021F0F9FAA07827
:10531000FE2121F0F5FACBE00A98000625D00B9883
:10532000059A000603D10898039A000663D07E48C8
:1053300002214FF001087A4CD5B2017018FA82F0C0
:10534000A270B0FBF7F101FB17006070284612F065
:1053500089FE724EFE213070284621F0D1FA0020DD
:1053600084F80580FFF7ACFBA2E00B98000616D08E
:10537000059B6D4801216A4A017011FA83F0937010
:10538000B0FBF7F101FB1700049989B25070FF29B7
:1053900014D10299FF2940F08180614980E0DDE964
:1053A0000620604D104300068CD022F0A7FDB842C5
:1053B00080F080805C48032101702BE0049B480052
:1053C000574A10FA83F0D37002EB8000818B1829C2
:1053D000D1806CD30498073910AA89B2C0B215F0F5
:1053E0006FFC9DF84B00410701D580076ED400206B
:1053F000FFF766FB5BE022F081FD0621B8424A48D8
:1054000038BF03210329017004D0444E062900F05F
:1054100082804DE022F072FD414C0546207300EB86
:10542000400004EB8000408BA4F80D000BF0D4FC8E
:105430003C4928440978B0FBF1F202FB1100A0704E
:105440000130C2B2B2FBF1F202FB110060707C20AD
:1054500021F070FAFF2812D17E2021F06BFAFF288C
:105460000DD1FF2021F066FAFF2808D1782021F025
:1054700061FA01462A48FF29407818BF0846C1B2A0
:10548000274A4900D07051FA80F0FE2102EB8000DB
:10549000808BD080907821F033FA08E02049029880
:1054A000C87000EB400001EB8000808BC8801B4E71
:1054B0003078F5E6089800062AD0039CFE21E0B279
:1054C00021F01EFA17480594077851E71449BDF8F2
:1054D0004E20002300930323C878C988891A10AA94
:1054E000073989B207F0E0F90028E0D1BDF84C1087
:1054F0000029DCD00A48C2789DF85000904204D1BF
:10550000074AD288073A8A42D1D01CF0D3FFCEE7AF
:10551000054806210170FEE72A430120243C0120B2
:10552000982801206E3201207832012065C50200E2
:105530002DE9F04F89B0DFF87024D2F8009011B156
:10554000D9F8081002E0D9E900121144A0EB010AD1
:1055500026F0C6FE064627F004FD8642504610D0CF
:105560001FFA8AF0310C4FEA1A43B5B201FB00F280
:105570006843594305FB032202EB1040800900EB0E
:105580008120564C02904FF00040AFF30080AFF303
:105590000080AFF30080AFF300805149E0670AF567
:1055A0000040AFF30080AFF30080AFF30080AFF3B3
:1055B0000080000CC4F88000AFF30080AFF30080DF
:1055C000AFF30080AFF3008008804648AFF300805F
:1055D000AFF30080AFF30080AFF300800568C5F340
:1055E00085175046394624F031F8C5F30831064690
:1055F0008F4202D0504624F029F846EA0040AFF32B
:105600000080AFF30080AFF30080AFF30080206232
:105610003548AFF30080AFF30080AFF30080AFF305
:10562000008000680190504622F03CFC06462F485E
:105630002F490425AFF30080AFF30080AFF3008063
:10564000AFF300800068AFF30080AFF30080AFF3EA
:105650000080AFF300800A68C2F30422AFF3008039
:10566000AFF30080AFF30080AFF3008009685FFA0A
:1056700081F842EA4010CB4AAFF30080AFF30080DC
:10568000AFF30080AFF30080126802F01F03C2F393
:10569000C017C2F341145843C74B984288BF032533
:1056A000D20458BF3C4400226719984288BF0122A7
:1056B000D04000EBC00B06F13F00800908FB00F072
:1056C000000C22F06AF90A2814D308FB06F1A0F1B5
:1056D0000A0201FA02F0B9181DE000BFA434084024
:1056E0001A6809408434084080340840D4200840B7
:1056F000D8200840C0F10A02C0F10900012303FAD2
:1057000000F0B91A304420FA02F000FA02F600FB69
:1057100008F000F14181A54C0BFA01F1A74AA84F0E
:10572000AFF30080AFF30080AFF30080AFF30080F1
:105730001268520715D58AB2AFF30080AFF300802C
:10574000AFF30080AFF30080C7F8A4210A0CAFF3D9
:105750000080AFF30080AFF30080AFF30080C7F8A4
:10576000A821AFF30080AFF30080AFF30080AFF368
:105770000080C7F8C813AFF30080AFF30080AFF329
:105780000080AFF30080C7F8CC030298504502D0E8
:1057900022F088FB06460199AFF30080AFF300804A
:1057A000AFF30080AFF300808800C0B27043A06107
:1057B000FC20AFF30080AFF30080AFF30080AFF3C5
:1057C000008000EA91107043E0617E48AFF30080F2
:1057D000AFF30080AFF30080AFF300800168C9072A
:1057E000F4D17948AFF30080AFF30080AFF30080CD
:1057F000AFF300800468AFF30080AFF30080AFF335
:105800000080AFF300802146D9F8040022F034FB79
:10581000674D21466880AFF30080AFF30080AFF39F
:105820000080AFF30080D9F8080022F025FBA880A3
:105830006049D9F80000AFF30080AFF30080AFF308
:105840000080AFF300800A68D1044FF0000158BF18
:10585000C2F3C011012381F01502002803FA02F2FD
:10586000034600D543422033C1F116019B0963432F
:1058700008331B0903EBC30300281A4422FA01F181
:10588000D8BF4942AFF30080AFF30080AFF3008090
:10589000AFF300806FF39F213960AFF30080AFF367
:1058A0000080AFF30080AFF300803965D9F8106055
:1058B000002E6ED0D9F80C10200135680A0B6FF35A
:1058C0001F31414350432A4600EB11306FF35F42D2
:1058D000C10B6FF3DF3050435143000C00EB51001C
:1058E00000F11004200C22F058F818214FEA554C12
:1058F00000230027A1EB554203A9BA4202D0CB55A1
:105900000137FAE7C0F108004FF48022331DCCF1D3
:105910000006640920EAE07E02FA0EF20EF1130797
:1059200046B113F8015B8819013604FB0525FD40DB
:105930000576F5E71D4B0022AFF30080AFF3008042
:10594000AFF30080AFF30080062A05D051F82200A3
:1059500043F822000132F7E7BEF1030F1B481C4950
:1059600028BF4FF0030EAFF30080AFF30080AFF31A
:105970000080AFF30080AFF30080AFF30080AFF39F
:105980000080AFF30080006820F0300040EA0E1085
:10599000585009B0BDE8F08F4942044C2BFA01F190
:1059A000BCE600BFEC200840E8300120A4340840E9
:1059B0001A680940EC2008401CC7711CA02208404E
:1059C000E02008403C32084028350840403108407B
:1059D0009CFCFFFF2DE9F84F044627F07AFC0746B0
:1059E000DFF8380447822078032819D9258D6FF015
:1059F0002700C5F3013600EB061087421DDAA0EB45
:105A0000070AC5F30110DFF818B426F0A3FF80469B
:105A1000C5F3012026F09EFF814605F0030222E037
:105A20004FF0000E4FF0000C00214FF0000A002054
:105A30004FF000094FF000084AE0AE0B7D2080EAED
:105A40000610874213DDA7EB000AC5F38110DFF8CB
:105A5000D0B326F07FFF8046C5F3812026F07AFF81
:105A60008146C5F3810250463146D84704E0002004
:105A70004FF000094FF00008E26AA7F1190142F364
:105A800003024A434FEAE21A314AAFF30080AFF310
:105A90000080AFF30080AFF300801388E26ADB0779
:105AA0000BD142F3034342F3036E4FEA227C594386
:105AB0001302C91101EB23710AE042F3031312052B
:105AC0004FF0000E4FF0000C5943C91101EB227149
:105AD0002278082A12D3222F12DD94F82B20A7F166
:105AE00023031025C2F38106920903FB06F75343F3
